{
  "contractName": "ChallengeSolidity",
  "abi": [
    {
      "inputs": [],
      "stateMutability": "nonpayable",
      "type": "constructor"
    },
    {
      "anonymous": false,
      "inputs": [
        {
          "indexed": true,
          "internalType": "address",
          "name": "account",
          "type": "address"
        },
        {
          "indexed": true,
          "internalType": "address",
          "name": "operator",
          "type": "address"
        },
        {
          "indexed": false,
          "internalType": "bool",
          "name": "approved",
          "type": "bool"
        }
      ],
      "name": "ApprovalForAll",
      "type": "event"
    },
    {
      "anonymous": false,
      "inputs": [
        {
          "indexed": false,
          "internalType": "address",
          "name": "user",
          "type": "address"
        },
        {
          "indexed": false,
          "internalType": "uint256",
          "name": "id",
          "type": "uint256"
        },
        {
          "indexed": false,
          "internalType": "uint256",
          "name": "cantidad",
          "type": "uint256"
        }
      ],
      "name": "ChangeStock",
      "type": "event"
    },
    {
      "anonymous": false,
      "inputs": [
        {
          "indexed": true,
          "internalType": "address",
          "name": "operator",
          "type": "address"
        },
        {
          "indexed": true,
          "internalType": "address",
          "name": "from",
          "type": "address"
        },
        {
          "indexed": true,
          "internalType": "address",
          "name": "to",
          "type": "address"
        },
        {
          "indexed": false,
          "internalType": "uint256[]",
          "name": "ids",
          "type": "uint256[]"
        },
        {
          "indexed": false,
          "internalType": "uint256[]",
          "name": "values",
          "type": "uint256[]"
        }
      ],
      "name": "TransferBatch",
      "type": "event"
    },
    {
      "anonymous": false,
      "inputs": [
        {
          "indexed": true,
          "internalType": "address",
          "name": "operator",
          "type": "address"
        },
        {
          "indexed": true,
          "internalType": "address",
          "name": "from",
          "type": "address"
        },
        {
          "indexed": true,
          "internalType": "address",
          "name": "to",
          "type": "address"
        },
        {
          "indexed": false,
          "internalType": "uint256",
          "name": "id",
          "type": "uint256"
        },
        {
          "indexed": false,
          "internalType": "uint256",
          "name": "value",
          "type": "uint256"
        }
      ],
      "name": "TransferSingle",
      "type": "event"
    },
    {
      "anonymous": false,
      "inputs": [
        {
          "indexed": false,
          "internalType": "string",
          "name": "value",
          "type": "string"
        },
        {
          "indexed": true,
          "internalType": "uint256",
          "name": "id",
          "type": "uint256"
        }
      ],
      "name": "URI",
      "type": "event"
    },
    {
      "inputs": [
        {
          "internalType": "uint256",
          "name": "",
          "type": "uint256"
        }
      ],
      "name": "Billete",
      "outputs": [
        {
          "internalType": "uint256",
          "name": "id",
          "type": "uint256"
        },
        {
          "internalType": "uint256",
          "name": "cantidad",
          "type": "uint256"
        },
        {
          "internalType": "uint256",
          "name": "valor",
          "type": "uint256"
        }
      ],
      "stateMutability": "view",
      "type": "function"
    },
    {
      "inputs": [],
      "name": "CIENPESOS",
      "outputs": [
        {
          "internalType": "uint256",
          "name": "",
          "type": "uint256"
        }
      ],
      "stateMutability": "view",
      "type": "function"
    },
    {
      "inputs": [],
      "name": "CINCOPESOS",
      "outputs": [
        {
          "internalType": "uint256",
          "name": "",
          "type": "uint256"
        }
      ],
      "stateMutability": "view",
      "type": "function"
    },
    {
      "inputs": [],
      "name": "CINCUENTAPESOS",
      "outputs": [
        {
          "internalType": "uint256",
          "name": "",
          "type": "uint256"
        }
      ],
      "stateMutability": "view",
      "type": "function"
    },
    {
      "inputs": [],
      "name": "UNOPESOS",
      "outputs": [
        {
          "internalType": "uint256",
          "name": "",
          "type": "uint256"
        }
      ],
      "stateMutability": "view",
      "type": "function"
    },
    {
      "inputs": [],
      "name": "VEINTEPESOS",
      "outputs": [
        {
          "internalType": "uint256",
          "name": "",
          "type": "uint256"
        }
      ],
      "stateMutability": "view",
      "type": "function"
    },
    {
      "inputs": [],
      "name": "_totalPesos",
      "outputs": [
        {
          "internalType": "uint256",
          "name": "",
          "type": "uint256"
        }
      ],
      "stateMutability": "view",
      "type": "function"
    },
    {
      "inputs": [
        {
          "internalType": "address",
          "name": "account",
          "type": "address"
        },
        {
          "internalType": "uint256",
          "name": "id",
          "type": "uint256"
        }
      ],
      "name": "balanceOf",
      "outputs": [
        {
          "internalType": "uint256",
          "name": "",
          "type": "uint256"
        }
      ],
      "stateMutability": "view",
      "type": "function"
    },
    {
      "inputs": [
        {
          "internalType": "address[]",
          "name": "accounts",
          "type": "address[]"
        },
        {
          "internalType": "uint256[]",
          "name": "ids",
          "type": "uint256[]"
        }
      ],
      "name": "balanceOfBatch",
      "outputs": [
        {
          "internalType": "uint256[]",
          "name": "",
          "type": "uint256[]"
        }
      ],
      "stateMutability": "view",
      "type": "function"
    },
    {
      "inputs": [
        {
          "internalType": "uint256",
          "name": "",
          "type": "uint256"
        }
      ],
      "name": "billetesUsados",
      "outputs": [
        {
          "internalType": "uint256",
          "name": "",
          "type": "uint256"
        }
      ],
      "stateMutability": "view",
      "type": "function"
    },
    {
      "inputs": [
        {
          "internalType": "uint256",
          "name": "_id",
          "type": "uint256"
        },
        {
          "internalType": "uint256",
          "name": "_cantidad",
          "type": "uint256"
        }
      ],
      "name": "changeStock",
      "outputs": [],
      "stateMutability": "nonpayable",
      "type": "function"
    },
    {
      "inputs": [
        {
          "internalType": "uint256[]",
          "name": "_ids",
          "type": "uint256[]"
        },
        {
          "internalType": "uint256[]",
          "name": "_cantidad",
          "type": "uint256[]"
        }
      ],
      "name": "changeStockTodos",
      "outputs": [],
      "stateMutability": "nonpayable",
      "type": "function"
    },
    {
      "inputs": [
        {
          "internalType": "uint256",
          "name": "_cantidad",
          "type": "uint256"
        }
      ],
      "name": "convertDenom",
      "outputs": [
        {
          "internalType": "uint256[]",
          "name": "va",
          "type": "uint256[]"
        }
      ],
      "stateMutability": "nonpayable",
      "type": "function"
    },
    {
      "inputs": [
        {
          "internalType": "uint256",
          "name": "_id",
          "type": "uint256"
        },
        {
          "internalType": "uint256",
          "name": "_cantidad",
          "type": "uint256"
        }
      ],
      "name": "crearBilletes",
      "outputs": [],
      "stateMutability": "nonpayable",
      "type": "function"
    },
    {
      "inputs": [
        {
          "internalType": "uint256",
          "name": "",
          "type": "uint256"
        }
      ],
      "name": "ids",
      "outputs": [
        {
          "internalType": "uint256",
          "name": "",
          "type": "uint256"
        }
      ],
      "stateMutability": "view",
      "type": "function"
    },
    {
      "inputs": [
        {
          "internalType": "address",
          "name": "account",
          "type": "address"
        },
        {
          "internalType": "address",
          "name": "operator",
          "type": "address"
        }
      ],
      "name": "isApprovedForAll",
      "outputs": [
        {
          "internalType": "bool",
          "name": "",
          "type": "bool"
        }
      ],
      "stateMutability": "view",
      "type": "function"
    },
    {
      "inputs": [],
      "name": "owner",
      "outputs": [
        {
          "internalType": "address",
          "name": "",
          "type": "address"
        }
      ],
      "stateMutability": "view",
      "type": "function"
    },
    {
      "inputs": [],
      "name": "returnBilletesUsados",
      "outputs": [
        {
          "internalType": "uint256[]",
          "name": "",
          "type": "uint256[]"
        }
      ],
      "stateMutability": "view",
      "type": "function"
    },
    {
      "inputs": [],
      "name": "returnTotalBilletes",
      "outputs": [
        {
          "internalType": "uint256[]",
          "name": "total",
          "type": "uint256[]"
        }
      ],
      "stateMutability": "view",
      "type": "function"
    },
    {
      "inputs": [
        {
          "internalType": "uint256",
          "name": "_id",
          "type": "uint256"
        }
      ],
      "name": "returnTotalBilletes",
      "outputs": [
        {
          "internalType": "uint256",
          "name": "algo",
          "type": "uint256"
        }
      ],
      "stateMutability": "view",
      "type": "function"
    },
    {
      "inputs": [
        {
          "internalType": "address",
          "name": "from",
          "type": "address"
        },
        {
          "internalType": "address",
          "name": "to",
          "type": "address"
        },
        {
          "internalType": "uint256[]",
          "name": "ids",
          "type": "uint256[]"
        },
        {
          "internalType": "uint256[]",
          "name": "amounts",
          "type": "uint256[]"
        },
        {
          "internalType": "bytes",
          "name": "data",
          "type": "bytes"
        }
      ],
      "name": "safeBatchTransferFrom",
      "outputs": [],
      "stateMutability": "nonpayable",
      "type": "function"
    },
    {
      "inputs": [
        {
          "internalType": "address",
          "name": "from",
          "type": "address"
        },
        {
          "internalType": "address",
          "name": "to",
          "type": "address"
        },
        {
          "internalType": "uint256",
          "name": "id",
          "type": "uint256"
        },
        {
          "internalType": "uint256",
          "name": "amount",
          "type": "uint256"
        },
        {
          "internalType": "bytes",
          "name": "data",
          "type": "bytes"
        }
      ],
      "name": "safeTransferFrom",
      "outputs": [],
      "stateMutability": "nonpayable",
      "type": "function"
    },
    {
      "inputs": [
        {
          "internalType": "address",
          "name": "operator",
          "type": "address"
        },
        {
          "internalType": "bool",
          "name": "approved",
          "type": "bool"
        }
      ],
      "name": "setApprovalForAll",
      "outputs": [],
      "stateMutability": "nonpayable",
      "type": "function"
    },
    {
      "inputs": [
        {
          "internalType": "bytes4",
          "name": "interfaceId",
          "type": "bytes4"
        }
      ],
      "name": "supportsInterface",
      "outputs": [
        {
          "internalType": "bool",
          "name": "",
          "type": "bool"
        }
      ],
      "stateMutability": "view",
      "type": "function"
    },
    {
      "inputs": [
        {
          "internalType": "uint256",
          "name": "",
          "type": "uint256"
        }
      ],
      "name": "uri",
      "outputs": [
        {
          "internalType": "string",
          "name": "",
          "type": "string"
        }
      ],
      "stateMutability": "view",
      "type": "function"
    },
    {
      "inputs": [
        {
          "internalType": "uint256",
          "name": "",
          "type": "uint256"
        }
      ],
      "name": "verificaBillete",
      "outputs": [
        {
          "internalType": "bool",
          "name": "",
          "type": "bool"
        }
      ],
      "stateMutability": "view",
      "type": "function"
    }
  ],
  "bytecode": "0x60806040523480156200001157600080fd5b506040518060200160405280600081525062000033816200009d60201b60201c565b506200004860016032620000b960201b60201c565b6200005b600580620000b960201b60201c565b6200006f60146002620000b960201b60201c565b6200008360326002620000b960201b60201c565b6200009760646014620000b960201b60201c565b62000ea1565b8060029080519060200190620000b5929190620006e4565b5050565b6004600083815260200190815260200160002060009054906101000a900460ff16156200011d576040517f08c379a00000000000000000000000000000000000000000000000000000000081526004016200011490620009e3565b60405180910390fd5b60006040518060600160405280848152602001838152602001848152509050806003600085815260200190815260200160002060008201518160000155602082015181600101556040820151816002015590505060016004600085815260200190815260200160002060006101000a81548160ff0219169083151502179055506005839080600181540180825580915050600190039060005260206000200160009091909190915055620001e933848460405180602001604052806000815250620001ee60201b60201c565b505050565b600073ffffffffffffffffffffffffffffffffffffffff168473ffffffffffffffffffffffffffffffffffffffff16141562000261576040517f08c379a0000000000000000000000000000000000000000000000000000000008152600401620002589062000a05565b60405180910390fd5b600062000273620003d660201b60201c565b905060006200028885620003de60201b60201c565b905060006200029d85620003de60201b60201c565b9050620002b683600089858589620004a760201b60201c565b8460008088815260200190815260200160002060008973ffffffffffffffffffffffffffffffffffffffff1673ffffffffffffffffffffffffffffffffffffffff168152602001908152602001600020600082825462000317919062000a96565b925050819055508673ffffffffffffffffffffffffffffffffffffffff16600073ffffffffffffffffffffffffffffffffffffffff168473ffffffffffffffffffffffffffffffffffffffff167fc3d58168c5ae7397731d063d5bbf3d657854427343f4c083240f7aacaa2d0f6289896040516200039792919062000a27565b60405180910390a4620003b683600089858589620004af60201b60201c565b620003cd83600089898989620004b760201b60201c565b50505050505050565b600033905090565b60606000600167ffffffffffffffff81111562000424577f4e487b7100000000000000000000000000000000000000000000000000000000600052604160045260246000fd5b604051908082528060200260200182016040528015620004535781602001602082028036833780820191505090505b509050828160008151811062000492577f4e487b7100000000000000000000000000000000000000000000000000000000600052603260045260246000fd5b60200260200101818152505080915050919050565b505050505050565b505050505050565b620004e38473ffffffffffffffffffffffffffffffffffffffff16620006c160201b620017941760201c565b15620006b9578373ffffffffffffffffffffffffffffffffffffffff1663f23a6e6187878686866040518663ffffffff1660e01b81526004016200052c95949392919062000917565b602060405180830381600087803b1580156200054757600080fd5b505af19250505080156200057b57506040513d601f19601f82011682018060405250810190620005789190620007ab565b60015b6200062d576200058a62000c8c565b806308c379a01415620005ee5750620005a262000de5565b80620005af5750620005f0565b806040517f08c379a0000000000000000000000000000000000000000000000000000000008152600401620005e591906200097b565b60405180910390fd5b505b6040517f08c379a000000000000000000000000000000000000000000000000000000000815260040162000624906200099f565b60405180910390fd5b63f23a6e6160e01b7bffffffffffffffffffffffffffffffffffffffffffffffffffffffff1916817bffffffffffffffffffffffffffffffffffffffffffffffffffffffff191614620006b7576040517f08c379a0000000000000000000000000000000000000000000000000000000008152600401620006ae90620009c1565b60405180910390fd5b505b505050505050565b6000808273ffffffffffffffffffffffffffffffffffffffff163b119050919050565b828054620006f29062000b93565b90600052602060002090601f01602090048101928262000716576000855562000762565b82601f106200073157805160ff191683800117855562000762565b8280016001018555821562000762579182015b828111156200076157825182559160200191906001019062000744565b5b50905062000771919062000775565b5090565b5b808211156200079057600081600090555060010162000776565b5090565b600081519050620007a58162000e87565b92915050565b600060208284031215620007be57600080fd5b6000620007ce8482850162000794565b91505092915050565b620007e28162000af3565b82525050565b6000620007f58262000a5e565b62000801818562000a74565b93506200081381856020860162000b5d565b6200081e8162000cb1565b840191505092915050565b6000620008368262000a69565b62000842818562000a85565b93506200085481856020860162000b5d565b6200085f8162000cb1565b840191505092915050565b60006200087960348362000a85565b9150620008868262000ccf565b604082019050919050565b6000620008a060288362000a85565b9150620008ad8262000d1e565b604082019050919050565b6000620008c760158362000a85565b9150620008d48262000d6d565b602082019050919050565b6000620008ee60218362000a85565b9150620008fb8262000d96565b604082019050919050565b620009118162000b53565b82525050565b600060a0820190506200092e6000830188620007d7565b6200093d6020830187620007d7565b6200094c604083018662000906565b6200095b606083018562000906565b81810360808301526200096f8184620007e8565b90509695505050505050565b6000602082019050818103600083015262000997818462000829565b905092915050565b60006020820190508181036000830152620009ba816200086a565b9050919050565b60006020820190508181036000830152620009dc8162000891565b9050919050565b60006020820190508181036000830152620009fe81620008b8565b9050919050565b6000602082019050818103600083015262000a2081620008df565b9050919050565b600060408201905062000a3e600083018562000906565b62000a4d602083018462000906565b9392505050565b6000604051905090565b600081519050919050565b600081519050919050565b600082825260208201905092915050565b600082825260208201905092915050565b600062000aa38262000b53565b915062000ab08362000b53565b9250827fffffffffffffffffffffffffffffffffffffffffffffffffffffffffffffffff0382111562000ae85762000ae762000bff565b5b828201905092915050565b600062000b008262000b33565b9050919050565b60007fffffffff0000000000000000000000000000000000000000000000000000000082169050919050565b600073ffffffffffffffffffffffffffffffffffffffff82169050919050565b6000819050919050565b60005b8381101562000b7d57808201518184015260208101905062000b60565b8381111562000b8d576000848401525b50505050565b6000600282049050600182168062000bac57607f821691505b6020821081141562000bc35762000bc262000c2e565b5b50919050565b62000bd48262000cb1565b810181811067ffffffffffffffff8211171562000bf65762000bf562000c5d565b5b80604052505050565b7f4e487b7100000000000000000000000000000000000000000000000000000000600052601160045260246000fd5b7f4e487b7100000000000000000000000000000000000000000000000000000000600052602260045260246000fd5b7f4e487b7100000000000000000000000000000000000000000000000000000000600052604160045260246000fd5b600060033d111562000cae5760046000803e62000cab60005162000cc2565b90505b90565b6000601f19601f8301169050919050565b60008160e01c9050919050565b7f455243313135353a207472616e7366657220746f206e6f6e204552433131353560008201527f526563656976657220696d706c656d656e746572000000000000000000000000602082015250565b7f455243313135353a204552433131353552656365697665722072656a6563746560008201527f6420746f6b656e73000000000000000000000000000000000000000000000000602082015250565b7f796120657374616120657374652062696c6c6574650000000000000000000000600082015250565b7f455243313135353a206d696e7420746f20746865207a65726f2061646472657360008201527f7300000000000000000000000000000000000000000000000000000000000000602082015250565b600060443d101562000df75762000e84565b62000e0162000a54565b60043d036004823e80513d602482011167ffffffffffffffff8211171562000e2b57505062000e84565b808201805167ffffffffffffffff81111562000e4b575050505062000e84565b80602083010160043d03850181111562000e6a57505050505062000e84565b62000e7b8260200185018662000bc9565b82955050505050505b90565b62000e928162000b07565b811462000e9e57600080fd5b50565b613b998062000eb16000396000f3fe608060405234801561001057600080fd5b50600436106101725760003560e01c80634bf3fd16116100de578063c24f84d711610097578063e985e9c511610071578063e985e9c514610487578063f242432a146104b7578063f892b7ba146104d3578063fac333ac146104f157610172565b8063c24f84d71461041b578063ce6aa22a1461044b578063e675a7da1461046957610172565b80634bf3fd16146103355780634e1273f41461035357806357c92c99146103835780639560f62b146103b3578063a22cb465146103cf578063bf749094146103eb57610172565b80632c984907116101305780632c9849071461025d5780632eb2c2d61461027b57806330617ef614610297578063373f840e146102c9578063400700b4146102e75780634468f89e1461031757610172565b8062fdd58e1461017757806301ffc9a7146101a75780630e89341c146101d757806315615ecc146102075780631729445f146102235780631e4eb1771461023f575b600080fd5b610191600480360381019061018c91906129b8565b610521565b60405161019e91906131e0565b60405180910390f35b6101c160048036038101906101bc9190612acc565b6105ea565b6040516101ce9190612fe3565b60405180910390f35b6101f160048036038101906101ec9190612b1e565b6106cc565b6040516101fe9190612ffe565b60405180910390f35b610221600480360381019061021c9190612b47565b610760565b005b61023d60048036038101906102389190612b47565b61088e565b005b6102476109b8565b6040516102549190612f8a565b60405180910390f35b610265610a10565b60405161027291906131e0565b60405180910390f35b6102956004803603810190610290919061282e565b610a15565b005b6102b160048036038101906102ac9190612b1e565b610ab6565b6040516102c093929190613224565b60405180910390f35b6102d1610ae0565b6040516102de91906131e0565b60405180910390f35b61030160048036038101906102fc9190612b1e565b610ae5565b60405161030e9190612f8a565b60405180910390f35b61031f610f75565b60405161032c91906131e0565b60405180910390f35b61033d610f7a565b60405161034a91906131e0565b60405180910390f35b61036d600480360381019061036891906129f4565b611075565b60405161037a9190612f8a565b60405180910390f35b61039d60048036038101906103989190612b1e565b611226565b6040516103aa91906131e0565b60405180910390f35b6103cd60048036038101906103c89190612a60565b61124a565b005b6103e960048036038101906103e4919061297c565b6114b1565b005b61040560048036038101906104009190612b1e565b6114c7565b60405161041291906131e0565b60405180910390f35b61043560048036038101906104309190612b1e565b6114df565b6040516104429190612fe3565b60405180910390f35b6104536114ff565b60405161046091906131e0565b60405180910390f35b610471611504565b60405161047e9190612f8a565b60405180910390f35b6104a1600480360381019061049c91906127f2565b611636565b6040516104ae9190612fe3565b60405180910390f35b6104d160048036038101906104cc91906128ed565b6116ca565b005b6104db61176b565b6040516104e891906131e0565b60405180910390f35b61050b60048036038101906105069190612b1e565b611770565b60405161051891906131e0565b60405180910390f35b60008073ffffffffffffffffffffffffffffffffffffffff168373ffffffffffffffffffffffffffffffffffffffff161415610592576040517f08c379a0000000000000000000000000000000000000000000000000000000008152600401610589906130c0565b60405180910390fd5b60008083815260200190815260200160002060008473ffffffffffffffffffffffffffffffffffffffff1673ffffffffffffffffffffffffffffffffffffffff16815260200190815260200160002054905092915050565b60007fd9b67a26000000000000000000000000000000000000000000000000000000007bffffffffffffffffffffffffffffffffffffffffffffffffffffffff1916827bffffffffffffffffffffffffffffffffffffffffffffffffffffffff191614806106b557507f0e89341c000000000000000000000000000000000000000000000000000000007bffffffffffffffffffffffffffffffffffffffffffffffffffffffff1916827bffffffffffffffffffffffffffffffffffffffffffffffffffffffff1916145b806106c557506106c4826117b7565b5b9050919050565b6060600280546106db9061353e565b80601f01602080910402602001604051908101604052809291908181526020018280546107079061353e565b80156107545780601f1061072957610100808354040283529160200191610754565b820191906000526020600020905b81548152906001019060200180831161073757829003601f168201915b50505050509050919050565b600115156004600084815260200190815260200160002060009054906101000a900460ff161515146107c7576040517f08c379a00000000000000000000000000000000000000000000000000000000081526004016107be906130e0565b60405180910390fd5b600360008381526020019081526020016000205061080c3360036000858152602001908152602001600020600001548360405180602001604052806000815250611821565b80600360008481526020019081526020016000206001016000828254610832919061337a565b925050819055507f100692475088d2c567c1fb7eeeea72284f833a6fe53e82aaf909ee2e8e5cfde73360036000858152602001908152602001600020600001548360405161088293929190612f53565b60405180910390a15050565b6004600083815260200190815260200160002060009054906101000a900460ff16156108ef576040517f08c379a00000000000000000000000000000000000000000000000000000000081526004016108e690613140565b60405180910390fd5b60006040518060600160405280848152602001838152602001848152509050806003600085815260200190815260200160002060008201518160000155602082015181600101556040820151816002015590505060016004600085815260200190815260200160002060006101000a81548160ff02191690831515021790555060058390806001815401808255809150506001900390600052602060002001600090919091909150556109b333848460405180602001604052806000815250611821565b505050565b60606006805480602002602001604051908101604052809291908181526020018280548015610a0657602002820191906000526020600020905b8154815260200190600101908083116109f2575b5050505050905090565b601481565b610a1d6119d2565b73ffffffffffffffffffffffffffffffffffffffff168573ffffffffffffffffffffffffffffffffffffffff161480610a635750610a6285610a5d6119d2565b611636565b5b610aa2576040517f08c379a0000000000000000000000000000000000000000000000000000000008152600401610a9990613060565b60405180910390fd5b610aaf85858585856119da565b5050505050565b60036020528060005260406000206000915090508060000154908060010154908060020154905083565b600581565b60606000610af1610f7a565b905080831115610b36576040517f08c379a0000000000000000000000000000000000000000000000000000000008152600401610b2d906130a0565b60405180910390fd5b600060058054905067ffffffffffffffff811115610b7d577f4e487b7100000000000000000000000000000000000000000000000000000000600052604160045260246000fd5b604051908082528060200260200182016040528015610bab5781602001602082028036833780820191505090505b50905060008060058054905090505b6000811115610ea6578080610bce90613514565b9150505b6003600060058381548110610c10577f4e487b7100000000000000000000000000000000000000000000000000000000600052603260045260246000fd5b90600052602060002001548152602001908152602001600020600201548610158015610c96575060006003600060058481548110610c77577f4e487b7100000000000000000000000000000000000000000000000000000000600052603260045260246000fd5b9060005260206000200154815260200190815260200160002060010154115b15610ea1576003600060058381548110610cd9577f4e487b7100000000000000000000000000000000000000000000000000000000600052603260045260246000fd5b906000526020600020015481526020019081526020016000206002015486610d01919061342a565b955060016003600060058481548110610d43577f4e487b7100000000000000000000000000000000000000000000000000000000600052603260045260246000fd5b906000526020600020015481526020019081526020016000206001016000828254610d6e919061342a565b925050819055506001838281518110610db0577f4e487b7100000000000000000000000000000000000000000000000000000000600052603260045260246000fd5b60200260200101818151610dc4919061337a565b9150818152505060066003600060058481548110610e0b577f4e487b7100000000000000000000000000000000000000000000000000000000600052603260045260246000fd5b90600052602060002001548152602001908152602001600020600201549080600181540180825580915050600190039060005260206000200160009091909190915055828181518110610e87577f4e487b7100000000000000000000000000000000000000000000000000000000600052603260045260246000fd5b602002602001015182610e9a919061337a565b9150610bd2565b610bba565b60008211610ee9576040517f08c379a0000000000000000000000000000000000000000000000000000000008152600401610ee090613040565b60405180910390fd5b610f693373ab8483f64d9c6d1ecf9b849ae677dd3315835cb26005805480602002602001604051908101604052809291908181526020018280548015610f4e57602002820191906000526020600020905b815481526020019060010190808311610f3a575b50505050508660405180602001604052806000815250610a15565b82945050505050919050565b603281565b60008060005b60058054905081101561106d576003600060058381548110610fcb577f4e487b7100000000000000000000000000000000000000000000000000000000600052603260045260246000fd5b90600052602060002001548152602001908152602001600020600201546003600060058481548110611026577f4e487b7100000000000000000000000000000000000000000000000000000000600052603260045260246000fd5b906000526020600020015481526020019081526020016000206001015461104d91906133d0565b82611058919061337a565b91508080611065906135a1565b915050610f80565b508091505090565b606081518351146110bb576040517f08c379a00000000000000000000000000000000000000000000000000000000081526004016110b290613180565b60405180910390fd5b6000835167ffffffffffffffff8111156110fe577f4e487b7100000000000000000000000000000000000000000000000000000000600052604160045260246000fd5b60405190808252806020026020018201604052801561112c5781602001602082028036833780820191505090505b50905060005b845181101561121b576111c5858281518110611177577f4e487b7100000000000000000000000000000000000000000000000000000000600052603260045260246000fd5b60200260200101518583815181106111b8577f4e487b7100000000000000000000000000000000000000000000000000000000600052603260045260246000fd5b6020026020010151610521565b8282815181106111fe577f4e487b7100000000000000000000000000000000000000000000000000000000600052603260045260246000fd5b60200260200101818152505080611214906135a1565b9050611132565b508091505092915050565b6006818154811061123657600080fd5b906000526020600020016000915090505481565b60005b82518110156114ac5760036000848381518110611293577f4e487b7100000000000000000000000000000000000000000000000000000000600052603260045260246000fd5b602002602001015181526020019081526020016000205061135b33600360008685815181106112eb577f4e487b7100000000000000000000000000000000000000000000000000000000600052603260045260246000fd5b602002602001015181526020019081526020016000206000015484848151811061133e577f4e487b7100000000000000000000000000000000000000000000000000000000600052603260045260246000fd5b602002602001015160405180602001604052806000815250611821565b818181518110611394577f4e487b7100000000000000000000000000000000000000000000000000000000600052603260045260246000fd5b6020026020010151600360008584815181106113d9577f4e487b7100000000000000000000000000000000000000000000000000000000600052603260045260246000fd5b602002602001015181526020019081526020016000206001016000828254611401919061337a565b925050819055507f100692475088d2c567c1fb7eeeea72284f833a6fe53e82aaf909ee2e8e5cfde733600360008481526020019081526020016000206000015484848151811061147a577f4e487b7100000000000000000000000000000000000000000000000000000000600052603260045260246000fd5b602002602001015160405161149193929190612f53565b60405180910390a180806114a4906135a1565b91505061124d565b505050565b6114c36114bc6119d2565b8383611d48565b5050565b6000806114d43384610521565b905080915050919050565b60046020528060005260406000206000915054906101000a900460ff1681565b600181565b6060600060058054905067ffffffffffffffff81111561154d577f4e487b7100000000000000000000000000000000000000000000000000000000600052604160045260246000fd5b60405190808252806020026020018201604052801561157b5781602001602082028036833780820191505090505b50905060005b815181101561162e576115d833600583815481106115c8577f4e487b7100000000000000000000000000000000000000000000000000000000600052603260045260246000fd5b9060005260206000200154610521565b828281518110611611577f4e487b7100000000000000000000000000000000000000000000000000000000600052603260045260246000fd5b60200260200101818152505080611627906135a1565b9050611581565b508091505090565b6000600160008473ffffffffffffffffffffffffffffffffffffffff1673ffffffffffffffffffffffffffffffffffffffff16815260200190815260200160002060008373ffffffffffffffffffffffffffffffffffffffff1673ffffffffffffffffffffffffffffffffffffffff16815260200190815260200160002060009054906101000a900460ff16905092915050565b6116d26119d2565b73ffffffffffffffffffffffffffffffffffffffff168573ffffffffffffffffffffffffffffffffffffffff1614806117185750611717856117126119d2565b611636565b5b611757576040517f08c379a000000000000000000000000000000000000000000000000000000000815260040161174e90613060565b60405180910390fd5b6117648585858585611eb5565b5050505050565b606481565b6005818154811061178057600080fd5b906000526020600020016000915090505481565b6000808273ffffffffffffffffffffffffffffffffffffffff163b119050919050565b60007f01ffc9a7000000000000000000000000000000000000000000000000000000007bffffffffffffffffffffffffffffffffffffffffffffffffffffffff1916827bffffffffffffffffffffffffffffffffffffffffffffffffffffffff1916149050919050565b600073ffffffffffffffffffffffffffffffffffffffff168473ffffffffffffffffffffffffffffffffffffffff161415611891576040517f08c379a0000000000000000000000000000000000000000000000000000000008152600401611888906131c0565b60405180910390fd5b600061189b6119d2565b905060006118a885612151565b905060006118b585612151565b90506118c683600089858589612217565b8460008088815260200190815260200160002060008973ffffffffffffffffffffffffffffffffffffffff1673ffffffffffffffffffffffffffffffffffffffff1681526020019081526020016000206000828254611925919061337a565b925050819055508673ffffffffffffffffffffffffffffffffffffffff16600073ffffffffffffffffffffffffffffffffffffffff168473ffffffffffffffffffffffffffffffffffffffff167fc3d58168c5ae7397731d063d5bbf3d657854427343f4c083240f7aacaa2d0f6289896040516119a39291906131fb565b60405180910390a46119ba8360008985858961221f565b6119c983600089898989612227565b50505050505050565b600033905090565b8151835114611a1e576040517f08c379a0000000000000000000000000000000000000000000000000000000008152600401611a15906131a0565b60405180910390fd5b600073ffffffffffffffffffffffffffffffffffffffff168473ffffffffffffffffffffffffffffffffffffffff161415611a8e576040517f08c379a0000000000000000000000000000000000000000000000000000000008152600401611a8590613100565b60405180910390fd5b6000611a986119d2565b9050611aa8818787878787612217565b60005b8451811015611ca5576000858281518110611aef577f4e487b7100000000000000000000000000000000000000000000000000000000600052603260045260246000fd5b602002602001015190506000858381518110611b34577f4e487b7100000000000000000000000000000000000000000000000000000000600052603260045260246000fd5b60200260200101519050600080600084815260200190815260200160002060008b73ffffffffffffffffffffffffffffffffffffffff1673ffffffffffffffffffffffffffffffffffffffff16815260200190815260200160002054905081811015611bd5576040517f08c379a0000000000000000000000000000000000000000000000000000000008152600401611bcc90613120565b60405180910390fd5b81810360008085815260200190815260200160002060008c73ffffffffffffffffffffffffffffffffffffffff1673ffffffffffffffffffffffffffffffffffffffff168152602001908152602001600020819055508160008085815260200190815260200160002060008b73ffffffffffffffffffffffffffffffffffffffff1673ffffffffffffffffffffffffffffffffffffffff1681526020019081526020016000206000828254611c8a919061337a565b9250508190555050505080611c9e906135a1565b9050611aab565b508473ffffffffffffffffffffffffffffffffffffffff168673ffffffffffffffffffffffffffffffffffffffff168273ffffffffffffffffffffffffffffffffffffffff167f4a39dc06d4c0dbc64b70af90fd698a233a518aa5d07e595d983b8c0526c8f7fb8787604051611d1c929190612fac565b60405180910390a4611d3281878787878761221f565b611d4081878787878761240e565b505050505050565b8173ffffffffffffffffffffffffffffffffffffffff168373ffffffffffffffffffffffffffffffffffffffff161415611db7576040517f08c379a0000000000000000000000000000000000000000000000000000000008152600401611dae90613160565b60405180910390fd5b80600160008573ffffffffffffffffffffffffffffffffffffffff1673ffffffffffffffffffffffffffffffffffffffff16815260200190815260200160002060008473ffffffffffffffffffffffffffffffffffffffff1673ffffffffffffffffffffffffffffffffffffffff16815260200190815260200160002060006101000a81548160ff0219169083151502179055508173ffffffffffffffffffffffffffffffffffffffff168373ffffffffffffffffffffffffffffffffffffffff167f17307eab39ab6107e8899845ad3d59bd9653f200f220920489ca2b5937696c3183604051611ea89190612fe3565b60405180910390a3505050565b600073ffffffffffffffffffffffffffffffffffffffff168473ffffffffffffffffffffffffffffffffffffffff161415611f25576040517f08c379a0000000000000000000000000000000000000000000000000000000008152600401611f1c90613100565b60405180910390fd5b6000611f2f6119d2565b90506000611f3c85612151565b90506000611f4985612151565b9050611f59838989858589612217565b600080600088815260200190815260200160002060008a73ffffffffffffffffffffffffffffffffffffffff1673ffffffffffffffffffffffffffffffffffffffff16815260200190815260200160002054905085811015611ff0576040517f08c379a0000000000000000000000000000000000000000000000000000000008152600401611fe790613120565b60405180910390fd5b85810360008089815260200190815260200160002060008b73ffffffffffffffffffffffffffffffffffffffff1673ffffffffffffffffffffffffffffffffffffffff168152602001908152602001600020819055508560008089815260200190815260200160002060008a73ffffffffffffffffffffffffffffffffffffffff1673ffffffffffffffffffffffffffffffffffffffff16815260200190815260200160002060008282546120a5919061337a565b925050819055508773ffffffffffffffffffffffffffffffffffffffff168973ffffffffffffffffffffffffffffffffffffffff168573ffffffffffffffffffffffffffffffffffffffff167fc3d58168c5ae7397731d063d5bbf3d657854427343f4c083240f7aacaa2d0f628a8a6040516121229291906131fb565b60405180910390a4612138848a8a86868a61221f565b612146848a8a8a8a8a612227565b505050505050505050565b60606000600167ffffffffffffffff811115612196577f4e487b7100000000000000000000000000000000000000000000000000000000600052604160045260246000fd5b6040519080825280602002602001820160405280156121c45781602001602082028036833780820191505090505b5090508281600081518110612202577f4e487b7100000000000000000000000000000000000000000000000000000000600052603260045260246000fd5b60200260200101818152505080915050919050565b505050505050565b505050505050565b6122468473ffffffffffffffffffffffffffffffffffffffff16611794565b15612406578373ffffffffffffffffffffffffffffffffffffffff1663f23a6e6187878686866040518663ffffffff1660e01b815260040161228c959493929190612ef9565b602060405180830381600087803b1580156122a657600080fd5b505af19250505080156122d757506040513d601f19601f820116820180604052508101906122d49190612af5565b60015b61237d576122e3613677565b806308c379a0141561234057506122f8613a71565b806123035750612342565b806040517f08c379a00000000000000000000000000000000000000000000000000000000081526004016123379190612ffe565b60405180910390fd5b505b6040517f08c379a000000000000000000000000000000000000000000000000000000000815260040161237490613020565b60405180910390fd5b63f23a6e6160e01b7bffffffffffffffffffffffffffffffffffffffffffffffffffffffff1916817bffffffffffffffffffffffffffffffffffffffffffffffffffffffff191614612404576040517f08c379a00000000000000000000000000000000000000000000000000000000081526004016123fb90613080565b60405180910390fd5b505b505050505050565b61242d8473ffffffffffffffffffffffffffffffffffffffff16611794565b156125ed578373ffffffffffffffffffffffffffffffffffffffff1663bc197c8187878686866040518663ffffffff1660e01b8152600401612473959493929190612e91565b602060405180830381600087803b15801561248d57600080fd5b505af19250505080156124be57506040513d601f19601f820116820180604052508101906124bb9190612af5565b60015b612564576124ca613677565b806308c379a0141561252757506124df613a71565b806124ea5750612529565b806040517f08c379a000000000000000000000000000000000000000000000000000000000815260040161251e9190612ffe565b60405180910390fd5b505b6040517f08c379a000000000000000000000000000000000000000000000000000000000815260040161255b90613020565b60405180910390fd5b63bc197c8160e01b7bffffffffffffffffffffffffffffffffffffffffffffffffffffffff1916817bffffffffffffffffffffffffffffffffffffffffffffffffffffffff1916146125eb576040517f08c379a00000000000000000000000000000000000000000000000000000000081526004016125e290613080565b60405180910390fd5b505b505050505050565b600061260861260384613280565b61325b565b9050808382526020820190508285602086028201111561262757600080fd5b60005b85811015612657578161263d888261270b565b84526020840193506020830192505060018101905061262a565b5050509392505050565b600061267461266f846132ac565b61325b565b9050808382526020820190508285602086028201111561269357600080fd5b60005b858110156126c357816126a988826127dd565b845260208401935060208301925050600181019050612696565b5050509392505050565b60006126e06126db846132d8565b61325b565b9050828152602081018484840111156126f857600080fd5b6127038482856134d2565b509392505050565b60008135905061271a81613b07565b92915050565b600082601f83011261273157600080fd5b81356127418482602086016125f5565b91505092915050565b600082601f83011261275b57600080fd5b813561276b848260208601612661565b91505092915050565b60008135905061278381613b1e565b92915050565b60008135905061279881613b35565b92915050565b6000815190506127ad81613b35565b92915050565b600082601f8301126127c457600080fd5b81356127d48482602086016126cd565b91505092915050565b6000813590506127ec81613b4c565b92915050565b6000806040838503121561280557600080fd5b60006128138582860161270b565b92505060206128248582860161270b565b9150509250929050565b600080600080600060a0868803121561284657600080fd5b60006128548882890161270b565b95505060206128658882890161270b565b945050604086013567ffffffffffffffff81111561288257600080fd5b61288e8882890161274a565b935050606086013567ffffffffffffffff8111156128ab57600080fd5b6128b78882890161274a565b925050608086013567ffffffffffffffff8111156128d457600080fd5b6128e0888289016127b3565b9150509295509295909350565b600080600080600060a0868803121561290557600080fd5b60006129138882890161270b565b95505060206129248882890161270b565b9450506040612935888289016127dd565b9350506060612946888289016127dd565b925050608086013567ffffffffffffffff81111561296357600080fd5b61296f888289016127b3565b9150509295509295909350565b6000806040838503121561298f57600080fd5b600061299d8582860161270b565b92505060206129ae85828601612774565b9150509250929050565b600080604083850312156129cb57600080fd5b60006129d98582860161270b565b92505060206129ea858286016127dd565b9150509250929050565b60008060408385031215612a0757600080fd5b600083013567ffffffffffffffff811115612a2157600080fd5b612a2d85828601612720565b925050602083013567ffffffffffffffff811115612a4a57600080fd5b612a568582860161274a565b9150509250929050565b60008060408385031215612a7357600080fd5b600083013567ffffffffffffffff811115612a8d57600080fd5b612a998582860161274a565b925050602083013567ffffffffffffffff811115612ab657600080fd5b612ac28582860161274a565b9150509250929050565b600060208284031215612ade57600080fd5b6000612aec84828501612789565b91505092915050565b600060208284031215612b0757600080fd5b6000612b158482850161279e565b91505092915050565b600060208284031215612b3057600080fd5b6000612b3e848285016127dd565b91505092915050565b60008060408385031215612b5a57600080fd5b6000612b68858286016127dd565b9250506020612b79858286016127dd565b9150509250929050565b6000612b8f8383612e73565b60208301905092915050565b612ba48161345e565b82525050565b6000612bb582613319565b612bbf8185613347565b9350612bca83613309565b8060005b83811015612bfb578151612be28882612b83565b9750612bed8361333a565b925050600181019050612bce565b5085935050505092915050565b612c1181613470565b82525050565b6000612c2282613324565b612c2c8185613358565b9350612c3c8185602086016134e1565b612c4581613699565b840191505092915050565b6000612c5b8261332f565b612c658185613369565b9350612c758185602086016134e1565b612c7e81613699565b840191505092915050565b6000612c96603483613369565b9150612ca1826136b7565b604082019050919050565b6000612cb9600f83613369565b9150612cc482613706565b602082019050919050565b6000612cdc602f83613369565b9150612ce78261372f565b604082019050919050565b6000612cff602883613369565b9150612d0a8261377e565b604082019050919050565b6000612d22601083613369565b9150612d2d826137cd565b602082019050919050565b6000612d45602a83613369565b9150612d50826137f6565b604082019050919050565b6000612d68601583613369565b9150612d7382613845565b602082019050919050565b6000612d8b602583613369565b9150612d968261386e565b604082019050919050565b6000612dae602a83613369565b9150612db9826138bd565b604082019050919050565b6000612dd1601583613369565b9150612ddc8261390c565b602082019050919050565b6000612df4602983613369565b9150612dff82613935565b604082019050919050565b6000612e17602983613369565b9150612e2282613984565b604082019050919050565b6000612e3a602883613369565b9150612e45826139d3565b604082019050919050565b6000612e5d602183613369565b9150612e6882613a22565b604082019050919050565b612e7c816134c8565b82525050565b612e8b816134c8565b82525050565b600060a082019050612ea66000830188612b9b565b612eb36020830187612b9b565b8181036040830152612ec58186612baa565b90508181036060830152612ed98185612baa565b90508181036080830152612eed8184612c17565b90509695505050505050565b600060a082019050612f0e6000830188612b9b565b612f1b6020830187612b9b565b612f286040830186612e82565b612f356060830185612e82565b8181036080830152612f478184612c17565b90509695505050505050565b6000606082019050612f686000830186612b9b565b612f756020830185612e82565b612f826040830184612e82565b949350505050565b60006020820190508181036000830152612fa48184612baa565b905092915050565b60006040820190508181036000830152612fc68185612baa565b90508181036020830152612fda8184612baa565b90509392505050565b6000602082019050612ff86000830184612c08565b92915050565b600060208201905081810360008301526130188184612c50565b905092915050565b6000602082019050818103600083015261303981612c89565b9050919050565b6000602082019050818103600083015261305981612cac565b9050919050565b6000602082019050818103600083015261307981612ccf565b9050919050565b6000602082019050818103600083015261309981612cf2565b9050919050565b600060208201905081810360008301526130b981612d15565b9050919050565b600060208201905081810360008301526130d981612d38565b9050919050565b600060208201905081810360008301526130f981612d5b565b9050919050565b6000602082019050818103600083015261311981612d7e565b9050919050565b6000602082019050818103600083015261313981612da1565b9050919050565b6000602082019050818103600083015261315981612dc4565b9050919050565b6000602082019050818103600083015261317981612de7565b9050919050565b6000602082019050818103600083015261319981612e0a565b9050919050565b600060208201905081810360008301526131b981612e2d565b9050919050565b600060208201905081810360008301526131d981612e50565b9050919050565b60006020820190506131f56000830184612e82565b92915050565b60006040820190506132106000830185612e82565b61321d6020830184612e82565b9392505050565b60006060820190506132396000830186612e82565b6132466020830185612e82565b6132536040830184612e82565b949350505050565b6000613265613276565b90506132718282613570565b919050565b6000604051905090565b600067ffffffffffffffff82111561329b5761329a613648565b5b602082029050602081019050919050565b600067ffffffffffffffff8211156132c7576132c6613648565b5b602082029050602081019050919050565b600067ffffffffffffffff8211156132f3576132f2613648565b5b6132fc82613699565b9050602081019050919050565b6000819050602082019050919050565b600081519050919050565b600081519050919050565b600081519050919050565b6000602082019050919050565b600082825260208201905092915050565b600082825260208201905092915050565b600082825260208201905092915050565b6000613385826134c8565b9150613390836134c8565b9250827fffffffffffffffffffffffffffffffffffffffffffffffffffffffffffffffff038211156133c5576133c46135ea565b5b828201905092915050565b60006133db826134c8565b91506133e6836134c8565b9250817fffffffffffffffffffffffffffffffffffffffffffffffffffffffffffffffff048311821515161561341f5761341e6135ea565b5b828202905092915050565b6000613435826134c8565b9150613440836134c8565b925082821015613453576134526135ea565b5b828203905092915050565b6000613469826134a8565b9050919050565b60008115159050919050565b60007fffffffff0000000000000000000000000000000000000000000000000000000082169050919050565b600073ffffffffffffffffffffffffffffffffffffffff82169050919050565b6000819050919050565b82818337600083830152505050565b60005b838110156134ff5780820151818401526020810190506134e4565b8381111561350e576000848401525b50505050565b600061351f826134c8565b91506000821415613533576135326135ea565b5b600182039050919050565b6000600282049050600182168061355657607f821691505b6020821081141561356a57613569613619565b5b50919050565b61357982613699565b810181811067ffffffffffffffff8211171561359857613597613648565b5b80604052505050565b60006135ac826134c8565b91507fffffffffffffffffffffffffffffffffffffffffffffffffffffffffffffffff8214156135df576135de6135ea565b5b600182019050919050565b7f4e487b7100000000000000000000000000000000000000000000000000000000600052601160045260246000fd5b7f4e487b7100000000000000000000000000000000000000000000000000000000600052602260045260246000fd5b7f4e487b7100000000000000000000000000000000000000000000000000000000600052604160045260246000fd5b600060033d11156136965760046000803e6136936000516136aa565b90505b90565b6000601f19601f8301169050919050565b60008160e01c9050919050565b7f455243313135353a207472616e7366657220746f206e6f6e204552433131353560008201527f526563656976657220696d706c656d656e746572000000000000000000000000602082015250565b7f6e6f206861792062696c6c657465730000000000000000000000000000000000600082015250565b7f455243313135353a2063616c6c6572206973206e6f7420746f6b656e206f776e60008201527f6572206e6f7220617070726f7665640000000000000000000000000000000000602082015250565b7f455243313135353a204552433131353552656365697665722072656a6563746560008201527f6420746f6b656e73000000000000000000000000000000000000000000000000602082015250565b7f6e6f2074656e656d6f732074616e746f00000000000000000000000000000000600082015250565b7f455243313135353a2061646472657373207a65726f206973206e6f742061207660008201527f616c6964206f776e657200000000000000000000000000000000000000000000602082015250565b7f6e6f2074656e657320657374652062696c6c6574650000000000000000000000600082015250565b7f455243313135353a207472616e7366657220746f20746865207a65726f20616460008201527f6472657373000000000000000000000000000000000000000000000000000000602082015250565b7f455243313135353a20696e73756666696369656e742062616c616e636520666f60008201527f72207472616e7366657200000000000000000000000000000000000000000000602082015250565b7f796120657374616120657374652062696c6c6574650000000000000000000000600082015250565b7f455243313135353a2073657474696e6720617070726f76616c2073746174757360008201527f20666f722073656c660000000000000000000000000000000000000000000000602082015250565b7f455243313135353a206163636f756e747320616e6420696473206c656e67746860008201527f206d69736d617463680000000000000000000000000000000000000000000000602082015250565b7f455243313135353a2069647320616e6420616d6f756e7473206c656e6774682060008201527f6d69736d61746368000000000000000000000000000000000000000000000000602082015250565b7f455243313135353a206d696e7420746f20746865207a65726f2061646472657360008201527f7300000000000000000000000000000000000000000000000000000000000000602082015250565b600060443d1015613a8157613b04565b613a89613276565b60043d036004823e80513d602482011167ffffffffffffffff82111715613ab1575050613b04565b808201805167ffffffffffffffff811115613acf5750505050613b04565b80602083010160043d038501811115613aec575050505050613b04565b613afb82602001850186613570565b82955050505050505b90565b613b108161345e565b8114613b1b57600080fd5b50565b613b2781613470565b8114613b3257600080fd5b50565b613b3e8161347c565b8114613b4957600080fd5b50565b613b55816134c8565b8114613b6057600080fd5b5056fea264697066735822122073a27d76a625d70147a29720fc16e2f8f90ba74191b362c7c840387e21ce1bc464736f6c63430008010033",
  "immutableReferences": {},
  "source": "// SPDX-License-Identifier: MIT\r\npragma solidity ^0.8.1;\r\n\r\nimport \"@openzeppelin/contracts/token/ERC1155/ERC1155.sol\";\r\n\r\n\r\n  contract ChallengeSolidity is ERC1155 {\r\n    uint256 public constant UNOPESOS = 1;\r\n    uint256 public constant CINCOPESOS = 5;\r\n    uint256 public constant VEINTEPESOS = 20;\r\n    uint256 public constant CINCUENTAPESOS = 50;\r\n    uint256 public constant CIENPESOS = 100;\r\n\r\n    \r\n\r\n    struct Billetes{\r\n        uint id;\r\n        uint cantidad;\r\n        uint valor;\r\n    }\r\n\r\n\r\n    mapping(uint=>Billetes) public Billete;\r\n    mapping(uint=> bool) public verificaBillete;\r\n    event ChangeStock(address user, uint id, uint cantidad);\r\n\r\n    uint[] public ids;\r\n    uint[] public billetesUsados;\r\n    \r\n\r\n    constructor()  ERC1155(\"\") {  \r\n        crearBilletes(UNOPESOS, 50);\r\n        crearBilletes(CINCOPESOS, 5);\r\n        crearBilletes(VEINTEPESOS, 2);\r\n        crearBilletes(CINCUENTAPESOS, 2);\r\n        crearBilletes(CIENPESOS, 20);\r\n    \r\n    }\r\n//CREAR NUEVO BILLETE\r\n  function crearBilletes (uint _id, uint _cantidad) public   {\r\n        require(!verificaBillete[_id], \"ya estaa este billete\");\r\n        Billetes memory newUnPeso = Billetes(\r\n              _id,\r\n              _cantidad,\r\n              _id\r\n        );\r\n\r\n        Billete[_id] = newUnPeso;\r\n        verificaBillete[_id] = true;\r\n        ids.push(_id);\r\n      _mint(msg.sender, _id, _cantidad , \"\");\r\n  }\r\n\r\n  //PAGO DE BILLETES\r\n    function convertDenom(uint _cantidad) public  returns(uint[] memory va)  {\r\n      uint totalBilletes = totalPesos();\r\n      require (_cantidad <= totalBilletes, \"no tenemos tanto\");\r\n\r\n       uint[] memory cantidadDenom= new uint256[](ids.length);\r\n        uint totalPagado ;\r\n        uint i = ids.length ;\r\n        while(i > 0){\r\n          i--;\r\n          while(_cantidad >= Billete[ids[i]].valor && Billete[ids[i]].cantidad > 0){\r\n          _cantidad -= Billete[ids[i]].valor;\r\n          Billete[ids[i]].cantidad -= 1;\r\n          cantidadDenom[i] += 1;\r\n          billetesUsados.push(Billete[ids[i]].valor);\r\n          totalPagado += cantidadDenom[i];\r\n          }\r\n        }                              \r\n        require(totalPagado > 0, \"no hay billetes\");\r\n        safeBatchTransferFrom(msg.sender,0xAb8483F64d9C6d1EcF9b849Ae677dD3315835cb2,ids, cantidadDenom ,\"\" );\r\n        return cantidadDenom;\r\n    }\r\n\r\n  //RETRUN BALANCE POR BILLETE\r\n    function returnBilleteTotal(uint _id) public view returns(uint algo){\r\n      uint balance = balanceOf(msg.sender, _id);\r\n      return  balance;\r\n    }\r\n\r\n  //RETURN TODOS LOS BILLETES\r\n    function returnTotalBilletes() public view returns(uint[] memory total){\r\n        uint256[] memory batchBalances1 = new uint256[](ids.length);\r\n        for (uint256 i = 0; i < batchBalances1.length; ++i) {\r\n                batchBalances1[i] = balanceOf(msg.sender, ids[i]);\r\n            }\r\n          return batchBalances1;\r\n    }\r\n\r\n  //AGREGAR STOCK POR BILLETE\r\n    function changeStock(uint _id, uint _cantidad) public   {\r\n      require(verificaBillete[_id] == true, \"no tenes este billete\");\r\n        Billete[_id];\r\n         _mint(msg.sender, Billete[_id].id,_cantidad , \"\");\r\n          Billete[_id].cantidad +=_cantidad;\r\n         emit ChangeStock(msg.sender,Billete[_id].id,_cantidad );\r\n    }\r\n\r\n  //AGREGAR TODOS LOS BILLETES O LOS QUE QUIERAS \r\n    function changeStockTodos(uint[] memory _ids, uint[] memory _cantidad) public   {\r\n      for(uint i = 0; i< _ids.length;i++){\r\n       \r\n        Billete[_ids[i]];\r\n         _mint(msg.sender, Billete[_ids[i]].id, _cantidad[i] , \"\");\r\n          Billete[_ids[i]].cantidad +=_cantidad[i];\r\n         emit ChangeStock(msg.sender,Billete[i].id,_cantidad[i] );\r\n      }\r\n    }\r\n//TOTAL DE LA SUMA DE TODOS LOS BILLETICOS\r\n    function totalPesos() public view returns(uint){\r\n      uint totalBilletes;\r\n       for(uint i = 0; i<ids.length; i++){\r\n        totalBilletes += Billete[ids[i]].cantidad * Billete[ids[i]].valor;\r\n      }\r\n      return totalBilletes;\r\n    }\r\n\r\n    function returnBilletesUsados() public view returns(uint[] memory){\r\n      return billetesUsados;\r\n    }\r\n\r\n}",
  "sourcePath": "C:\\Users\\Hp Omen\\Desktop\\Challenge Solidity\\contracts\\ChallengeSolidity.sol",
  "compiler": {
    "name": "solc",
    "version": "0.8.1+commit.df193b15.Emscripten.clang"
  },
  "schemaVersion": "3.4.3",
  "updatedAt": "2022-07-04T02:39:48.966Z",
  "networkType": "ethereum",
  "devdoc": {
    "kind": "dev",
    "methods": {
      "balanceOf(address,uint256)": {
        "details": "See {IERC1155-balanceOf}. Requirements: - `account` cannot be the zero address."
      },
      "balanceOfBatch(address[],uint256[])": {
        "details": "See {IERC1155-balanceOfBatch}. Requirements: - `accounts` and `ids` must have the same length."
      },
      "isApprovedForAll(address,address)": {
        "details": "See {IERC1155-isApprovedForAll}."
      },
      "safeBatchTransferFrom(address,address,uint256[],uint256[],bytes)": {
        "details": "See {IERC1155-safeBatchTransferFrom}."
      },
      "safeTransferFrom(address,address,uint256,uint256,bytes)": {
        "details": "See {IERC1155-safeTransferFrom}."
      },
      "setApprovalForAll(address,bool)": {
        "details": "See {IERC1155-setApprovalForAll}."
      },
      "supportsInterface(bytes4)": {
        "details": "See {IERC165-supportsInterface}."
      },
      "uri(uint256)": {
        "details": "See {IERC1155MetadataURI-uri}. This implementation returns the same URI for *all* token types. It relies on the token type ID substitution mechanism https://eips.ethereum.org/EIPS/eip-1155#metadata[defined in the EIP]. Clients calling this function must replace the `\\{id\\}` substring with the actual token type ID."
      }
    },
    "version": 1
  },
  "userdoc": {
    "kind": "user",
    "methods": {},
    "version": 1
  }
}