{
  "contractName": "SolidityChallenge",
  "abi": [
    {
      "inputs": [],
      "stateMutability": "nonpayable",
      "type": "constructor"
    },
    {
      "anonymous": false,
      "inputs": [
        {
          "indexed": true,
          "internalType": "address",
          "name": "account",
          "type": "address"
        },
        {
          "indexed": true,
          "internalType": "address",
          "name": "operator",
          "type": "address"
        },
        {
          "indexed": false,
          "internalType": "bool",
          "name": "approved",
          "type": "bool"
        }
      ],
      "name": "ApprovalForAll",
      "type": "event"
    },
    {
      "anonymous": false,
      "inputs": [
        {
          "indexed": false,
          "internalType": "address",
          "name": "user",
          "type": "address"
        },
        {
          "indexed": false,
          "internalType": "uint256",
          "name": "id",
          "type": "uint256"
        },
        {
          "indexed": false,
          "internalType": "uint256",
          "name": "cantidad",
          "type": "uint256"
        }
      ],
      "name": "ChangeStock",
      "type": "event"
    },
    {
      "anonymous": false,
      "inputs": [
        {
          "indexed": true,
          "internalType": "address",
          "name": "operator",
          "type": "address"
        },
        {
          "indexed": true,
          "internalType": "address",
          "name": "from",
          "type": "address"
        },
        {
          "indexed": true,
          "internalType": "address",
          "name": "to",
          "type": "address"
        },
        {
          "indexed": false,
          "internalType": "uint256[]",
          "name": "ids",
          "type": "uint256[]"
        },
        {
          "indexed": false,
          "internalType": "uint256[]",
          "name": "values",
          "type": "uint256[]"
        }
      ],
      "name": "TransferBatch",
      "type": "event"
    },
    {
      "anonymous": false,
      "inputs": [
        {
          "indexed": true,
          "internalType": "address",
          "name": "operator",
          "type": "address"
        },
        {
          "indexed": true,
          "internalType": "address",
          "name": "from",
          "type": "address"
        },
        {
          "indexed": true,
          "internalType": "address",
          "name": "to",
          "type": "address"
        },
        {
          "indexed": false,
          "internalType": "uint256",
          "name": "id",
          "type": "uint256"
        },
        {
          "indexed": false,
          "internalType": "uint256",
          "name": "value",
          "type": "uint256"
        }
      ],
      "name": "TransferSingle",
      "type": "event"
    },
    {
      "anonymous": false,
      "inputs": [
        {
          "indexed": false,
          "internalType": "string",
          "name": "value",
          "type": "string"
        },
        {
          "indexed": true,
          "internalType": "uint256",
          "name": "id",
          "type": "uint256"
        }
      ],
      "name": "URI",
      "type": "event"
    },
    {
      "inputs": [
        {
          "internalType": "uint256",
          "name": "",
          "type": "uint256"
        }
      ],
      "name": "Billete",
      "outputs": [
        {
          "internalType": "uint256",
          "name": "id",
          "type": "uint256"
        },
        {
          "internalType": "uint256",
          "name": "cantidad",
          "type": "uint256"
        },
        {
          "internalType": "uint256",
          "name": "valor",
          "type": "uint256"
        }
      ],
      "stateMutability": "view",
      "type": "function"
    },
    {
      "inputs": [],
      "name": "CIENPESOS",
      "outputs": [
        {
          "internalType": "uint256",
          "name": "",
          "type": "uint256"
        }
      ],
      "stateMutability": "view",
      "type": "function"
    },
    {
      "inputs": [],
      "name": "CINCOPESOS",
      "outputs": [
        {
          "internalType": "uint256",
          "name": "",
          "type": "uint256"
        }
      ],
      "stateMutability": "view",
      "type": "function"
    },
    {
      "inputs": [],
      "name": "CINCUENTAPESOS",
      "outputs": [
        {
          "internalType": "uint256",
          "name": "",
          "type": "uint256"
        }
      ],
      "stateMutability": "view",
      "type": "function"
    },
    {
      "inputs": [],
      "name": "UNOPESOS",
      "outputs": [
        {
          "internalType": "uint256",
          "name": "",
          "type": "uint256"
        }
      ],
      "stateMutability": "view",
      "type": "function"
    },
    {
      "inputs": [],
      "name": "VEINTEPESOS",
      "outputs": [
        {
          "internalType": "uint256",
          "name": "",
          "type": "uint256"
        }
      ],
      "stateMutability": "view",
      "type": "function"
    },
    {
      "inputs": [
        {
          "internalType": "address",
          "name": "account",
          "type": "address"
        },
        {
          "internalType": "uint256",
          "name": "id",
          "type": "uint256"
        }
      ],
      "name": "balanceOf",
      "outputs": [
        {
          "internalType": "uint256",
          "name": "",
          "type": "uint256"
        }
      ],
      "stateMutability": "view",
      "type": "function"
    },
    {
      "inputs": [
        {
          "internalType": "address[]",
          "name": "accounts",
          "type": "address[]"
        },
        {
          "internalType": "uint256[]",
          "name": "ids",
          "type": "uint256[]"
        }
      ],
      "name": "balanceOfBatch",
      "outputs": [
        {
          "internalType": "uint256[]",
          "name": "",
          "type": "uint256[]"
        }
      ],
      "stateMutability": "view",
      "type": "function"
    },
    {
      "inputs": [
        {
          "internalType": "uint256",
          "name": "",
          "type": "uint256"
        }
      ],
      "name": "billetesUsados",
      "outputs": [
        {
          "internalType": "uint256",
          "name": "",
          "type": "uint256"
        }
      ],
      "stateMutability": "view",
      "type": "function"
    },
    {
      "inputs": [
        {
          "internalType": "uint256",
          "name": "",
          "type": "uint256"
        }
      ],
      "name": "ids",
      "outputs": [
        {
          "internalType": "uint256",
          "name": "",
          "type": "uint256"
        }
      ],
      "stateMutability": "view",
      "type": "function"
    },
    {
      "inputs": [
        {
          "internalType": "address",
          "name": "account",
          "type": "address"
        },
        {
          "internalType": "address",
          "name": "operator",
          "type": "address"
        }
      ],
      "name": "isApprovedForAll",
      "outputs": [
        {
          "internalType": "bool",
          "name": "",
          "type": "bool"
        }
      ],
      "stateMutability": "view",
      "type": "function"
    },
    {
      "inputs": [],
      "name": "owner",
      "outputs": [
        {
          "internalType": "address",
          "name": "",
          "type": "address"
        }
      ],
      "stateMutability": "view",
      "type": "function"
    },
    {
      "inputs": [
        {
          "internalType": "address",
          "name": "from",
          "type": "address"
        },
        {
          "internalType": "address",
          "name": "to",
          "type": "address"
        },
        {
          "internalType": "uint256[]",
          "name": "ids",
          "type": "uint256[]"
        },
        {
          "internalType": "uint256[]",
          "name": "amounts",
          "type": "uint256[]"
        },
        {
          "internalType": "bytes",
          "name": "data",
          "type": "bytes"
        }
      ],
      "name": "safeBatchTransferFrom",
      "outputs": [],
      "stateMutability": "nonpayable",
      "type": "function"
    },
    {
      "inputs": [
        {
          "internalType": "address",
          "name": "from",
          "type": "address"
        },
        {
          "internalType": "address",
          "name": "to",
          "type": "address"
        },
        {
          "internalType": "uint256",
          "name": "id",
          "type": "uint256"
        },
        {
          "internalType": "uint256",
          "name": "amount",
          "type": "uint256"
        },
        {
          "internalType": "bytes",
          "name": "data",
          "type": "bytes"
        }
      ],
      "name": "safeTransferFrom",
      "outputs": [],
      "stateMutability": "nonpayable",
      "type": "function"
    },
    {
      "inputs": [
        {
          "internalType": "address",
          "name": "operator",
          "type": "address"
        },
        {
          "internalType": "bool",
          "name": "approved",
          "type": "bool"
        }
      ],
      "name": "setApprovalForAll",
      "outputs": [],
      "stateMutability": "nonpayable",
      "type": "function"
    },
    {
      "inputs": [
        {
          "internalType": "bytes4",
          "name": "interfaceId",
          "type": "bytes4"
        }
      ],
      "name": "supportsInterface",
      "outputs": [
        {
          "internalType": "bool",
          "name": "",
          "type": "bool"
        }
      ],
      "stateMutability": "view",
      "type": "function"
    },
    {
      "inputs": [
        {
          "internalType": "uint256",
          "name": "",
          "type": "uint256"
        }
      ],
      "name": "uri",
      "outputs": [
        {
          "internalType": "string",
          "name": "",
          "type": "string"
        }
      ],
      "stateMutability": "view",
      "type": "function"
    },
    {
      "inputs": [
        {
          "internalType": "uint256",
          "name": "",
          "type": "uint256"
        }
      ],
      "name": "verificaBillete",
      "outputs": [
        {
          "internalType": "bool",
          "name": "",
          "type": "bool"
        }
      ],
      "stateMutability": "view",
      "type": "function"
    },
    {
      "inputs": [
        {
          "internalType": "uint256",
          "name": "_id",
          "type": "uint256"
        },
        {
          "internalType": "uint256",
          "name": "_cantidad",
          "type": "uint256"
        }
      ],
      "name": "crearBilletes",
      "outputs": [],
      "stateMutability": "nonpayable",
      "type": "function"
    },
    {
      "inputs": [
        {
          "internalType": "uint256",
          "name": "_cantidad",
          "type": "uint256"
        }
      ],
      "name": "convertDenom",
      "outputs": [
        {
          "internalType": "uint256[]",
          "name": "va",
          "type": "uint256[]"
        }
      ],
      "stateMutability": "nonpayable",
      "type": "function"
    },
    {
      "inputs": [],
      "name": "returnTotalBilletes",
      "outputs": [
        {
          "internalType": "uint256[]",
          "name": "total",
          "type": "uint256[]"
        }
      ],
      "stateMutability": "view",
      "type": "function"
    },
    {
      "inputs": [
        {
          "internalType": "uint256",
          "name": "_id",
          "type": "uint256"
        }
      ],
      "name": "returnTotalBilletes",
      "outputs": [
        {
          "internalType": "uint256",
          "name": "algo",
          "type": "uint256"
        }
      ],
      "stateMutability": "view",
      "type": "function"
    },
    {
      "inputs": [
        {
          "internalType": "uint256",
          "name": "_id",
          "type": "uint256"
        },
        {
          "internalType": "uint256",
          "name": "_cantidad",
          "type": "uint256"
        }
      ],
      "name": "changeStock",
      "outputs": [],
      "stateMutability": "nonpayable",
      "type": "function"
    },
    {
      "inputs": [
        {
          "internalType": "uint256[]",
          "name": "_ids",
          "type": "uint256[]"
        },
        {
          "internalType": "uint256[]",
          "name": "_cantidad",
          "type": "uint256[]"
        }
      ],
      "name": "changeStockTodos",
      "outputs": [],
      "stateMutability": "nonpayable",
      "type": "function"
    },
    {
      "inputs": [],
      "name": "_totalPesos",
      "outputs": [
        {
          "internalType": "uint256",
          "name": "",
          "type": "uint256"
        }
      ],
      "stateMutability": "view",
      "type": "function"
    }
  ],
  "bytecode": "0x608060405233600360006101000a81548173ffffffffffffffffffffffffffffffffffffffff021916908373ffffffffffffffffffffffffffffffffffffffff1602179055503480156200005257600080fd5b5060405180606001604052806027815260200162004a21602791396200007e816200012960201b60201c565b5062000093600160326200014560201b60201c565b620000a66005806200014560201b60201c565b620000ba601460026200014560201b60201c565b620000ce603260026200014560201b60201c565b620000e2606460146200014560201b60201c565b33600360006101000a81548173ffffffffffffffffffffffffffffffffffffffff021916908373ffffffffffffffffffffffffffffffffffffffff16021790555062000f2d565b80600290805190602001906200014192919062000770565b5050565b6005600083815260200190815260200160002060009054906101000a900460ff1615620001a9576040517f08c379a0000000000000000000000000000000000000000000000000000000008152600401620001a09062000a6f565b60405180910390fd5b60006040518060600160405280848152602001838152602001848152509050806004600085815260200190815260200160002060008201518160000155602082015181600101556040820151816002015590505060016005600085815260200190815260200160002060006101000a81548160ff021916908315150217905550600683908060018154018082558091505060019003906000526020600020016000909190919091505562000275338484604051806020016040528060008152506200027a60201b60201c565b505050565b600073ffffffffffffffffffffffffffffffffffffffff168473ffffffffffffffffffffffffffffffffffffffff161415620002ed576040517f08c379a0000000000000000000000000000000000000000000000000000000008152600401620002e49062000a91565b60405180910390fd5b6000620002ff6200046260201b60201c565b9050600062000314856200046a60201b60201c565b9050600062000329856200046a60201b60201c565b905062000342836000898585896200053360201b60201c565b8460008088815260200190815260200160002060008973ffffffffffffffffffffffffffffffffffffffff1673ffffffffffffffffffffffffffffffffffffffff1681526020019081526020016000206000828254620003a3919062000b22565b925050819055508673ffffffffffffffffffffffffffffffffffffffff16600073ffffffffffffffffffffffffffffffffffffffff168473ffffffffffffffffffffffffffffffffffffffff167fc3d58168c5ae7397731d063d5bbf3d657854427343f4c083240f7aacaa2d0f6289896040516200042392919062000ab3565b60405180910390a462000442836000898585896200053b60201b60201c565b62000459836000898989896200054360201b60201c565b50505050505050565b600033905090565b60606000600167ffffffffffffffff811115620004b0577f4e487b7100000000000000000000000000000000000000000000000000000000600052604160045260246000fd5b604051908082528060200260200182016040528015620004df5781602001602082028036833780820191505090505b50905082816000815181106200051e577f4e487b7100000000000000000000000000000000000000000000000000000000600052603260045260246000fd5b60200260200101818152505080915050919050565b505050505050565b505050505050565b6200056f8473ffffffffffffffffffffffffffffffffffffffff166200074d60201b620016c41760201c565b1562000745578373ffffffffffffffffffffffffffffffffffffffff1663f23a6e6187878686866040518663ffffffff1660e01b8152600401620005b8959493929190620009a3565b602060405180830381600087803b158015620005d357600080fd5b505af19250505080156200060757506040513d601f19601f8201168201806040525081019062000604919062000837565b60015b620006b9576200061662000d18565b806308c379a014156200067a57506200062e62000e71565b806200063b57506200067c565b806040517f08c379a000000000000000000000000000000000000000000000000000000000815260040162000671919062000a07565b60405180910390fd5b505b6040517f08c379a0000000000000000000000000000000000000000000000000000000008152600401620006b09062000a2b565b60405180910390fd5b63f23a6e6160e01b7bffffffffffffffffffffffffffffffffffffffffffffffffffffffff1916817bffffffffffffffffffffffffffffffffffffffffffffffffffffffff19161462000743576040517f08c379a00000000000000000000000000000000000000000000000000000000081526004016200073a9062000a4d565b60405180910390fd5b505b505050505050565b6000808273ffffffffffffffffffffffffffffffffffffffff163b119050919050565b8280546200077e9062000c1f565b90600052602060002090601f016020900481019282620007a25760008555620007ee565b82601f10620007bd57805160ff1916838001178555620007ee565b82800160010185558215620007ee579182015b82811115620007ed578251825591602001919060010190620007d0565b5b509050620007fd919062000801565b5090565b5b808211156200081c57600081600090555060010162000802565b5090565b600081519050620008318162000f13565b92915050565b6000602082840312156200084a57600080fd5b60006200085a8482850162000820565b91505092915050565b6200086e8162000b7f565b82525050565b6000620008818262000aea565b6200088d818562000b00565b93506200089f81856020860162000be9565b620008aa8162000d3d565b840191505092915050565b6000620008c28262000af5565b620008ce818562000b11565b9350620008e081856020860162000be9565b620008eb8162000d3d565b840191505092915050565b60006200090560348362000b11565b9150620009128262000d5b565b604082019050919050565b60006200092c60288362000b11565b9150620009398262000daa565b604082019050919050565b60006200095360158362000b11565b9150620009608262000df9565b602082019050919050565b60006200097a60218362000b11565b9150620009878262000e22565b604082019050919050565b6200099d8162000bdf565b82525050565b600060a082019050620009ba600083018862000863565b620009c9602083018762000863565b620009d8604083018662000992565b620009e7606083018562000992565b8181036080830152620009fb818462000874565b90509695505050505050565b6000602082019050818103600083015262000a238184620008b5565b905092915050565b6000602082019050818103600083015262000a4681620008f6565b9050919050565b6000602082019050818103600083015262000a68816200091d565b9050919050565b6000602082019050818103600083015262000a8a8162000944565b9050919050565b6000602082019050818103600083015262000aac816200096b565b9050919050565b600060408201905062000aca600083018562000992565b62000ad9602083018462000992565b9392505050565b6000604051905090565b600081519050919050565b600081519050919050565b600082825260208201905092915050565b600082825260208201905092915050565b600062000b2f8262000bdf565b915062000b3c8362000bdf565b9250827fffffffffffffffffffffffffffffffffffffffffffffffffffffffffffffffff0382111562000b745762000b7362000c8b565b5b828201905092915050565b600062000b8c8262000bbf565b9050919050565b60007fffffffff0000000000000000000000000000000000000000000000000000000082169050919050565b600073ffffffffffffffffffffffffffffffffffffffff82169050919050565b6000819050919050565b60005b8381101562000c0957808201518184015260208101905062000bec565b8381111562000c19576000848401525b50505050565b6000600282049050600182168062000c3857607f821691505b6020821081141562000c4f5762000c4e62000cba565b5b50919050565b62000c608262000d3d565b810181811067ffffffffffffffff8211171562000c825762000c8162000ce9565b5b80604052505050565b7f4e487b7100000000000000000000000000000000000000000000000000000000600052601160045260246000fd5b7f4e487b7100000000000000000000000000000000000000000000000000000000600052602260045260246000fd5b7f4e487b7100000000000000000000000000000000000000000000000000000000600052604160045260246000fd5b600060033d111562000d3a5760046000803e62000d3760005162000d4e565b90505b90565b6000601f19601f8301169050919050565b60008160e01c9050919050565b7f455243313135353a207472616e7366657220746f206e6f6e204552433131353560008201527f526563656976657220696d706c656d656e746572000000000000000000000000602082015250565b7f455243313135353a204552433131353552656365697665722072656a6563746560008201527f6420746f6b656e73000000000000000000000000000000000000000000000000602082015250565b7f796120657374616120657374652062696c6c6574650000000000000000000000600082015250565b7f455243313135353a206d696e7420746f20746865207a65726f2061646472657360008201527f7300000000000000000000000000000000000000000000000000000000000000602082015250565b600060443d101562000e835762000f10565b62000e8d62000ae0565b60043d036004823e80513d602482011167ffffffffffffffff8211171562000eb757505062000f10565b808201805167ffffffffffffffff81111562000ed7575050505062000f10565b80602083010160043d03850181111562000ef657505050505062000f10565b62000f078260200185018662000c55565b82955050505050505b90565b62000f1e8162000b93565b811462000f2a57600080fd5b50565b613ae48062000f3d6000396000f3fe608060405234801561001057600080fd5b50600436106101725760003560e01c80634e1273f4116100de578063ce6aa22a11610097578063f242432a11610071578063f242432a14610487578063f892b7ba146104a3578063fac333ac146104c1578063fd6ec5a4146104f157610172565b8063ce6aa22a1461041b578063e675a7da14610439578063e985e9c51461045757610172565b80634e1273f41461033557806357c92c99146103655780638da5cb5b146103955780639560f62b146103b3578063a22cb465146103cf578063c24f84d7146103eb57610172565b80632eb2c2d6116101305780632eb2c2d61461025d57806330617ef614610279578063373f840e146102ab578063400700b4146102c95780634468f89e146102f957806345918ba21461031757610172565b8062fdd58e1461017757806301ffc9a7146101a75780630e89341c146101d757806315615ecc146102075780631729445f146102235780632c9849071461023f575b600080fd5b610191600480360381019061018c91906128e8565b610521565b60405161019e919061312b565b60405180910390f35b6101c160048036038101906101bc91906129fc565b6105ea565b6040516101ce9190612f2e565b60405180910390f35b6101f160048036038101906101ec9190612a4e565b6106cc565b6040516101fe9190612f49565b60405180910390f35b610221600480360381019061021c9190612a77565b610760565b005b61023d60048036038101906102389190612a77565b61086f565b005b610247610999565b604051610254919061312b565b60405180910390f35b6102776004803603810190610272919061275e565b61099e565b005b610293600480360381019061028e9190612a4e565b6109b2565b6040516102a29392919061316f565b60405180910390f35b6102b36109dc565b6040516102c0919061312b565b60405180910390f35b6102e360048036038101906102de9190612a4e565b6109e1565b6040516102f09190612ed5565b60405180910390f35b610301610e7f565b60405161030e919061312b565b60405180910390f35b61031f610e84565b60405161032c919061312b565b60405180910390f35b61034f600480360381019061034a9190612924565b610f7f565b60405161035c9190612ed5565b60405180910390f35b61037f600480360381019061037a9190612a4e565b611130565b60405161038c919061312b565b60405180910390f35b61039d611154565b6040516103aa9190612dc1565b60405180910390f35b6103cd60048036038101906103c89190612990565b61117a565b005b6103e960048036038101906103e491906128ac565b6113e1565b005b61040560048036038101906104009190612a4e565b6113f7565b6040516104129190612f2e565b60405180910390f35b610423611417565b604051610430919061312b565b60405180910390f35b61044161141c565b60405161044e9190612ed5565b60405180910390f35b610471600480360381019061046c9190612722565b61154e565b60405161047e9190612f2e565b60405180910390f35b6104a1600480360381019061049c919061281d565b6115e2565b005b6104ab611683565b6040516104b8919061312b565b60405180910390f35b6104db60048036038101906104d69190612a4e565b611688565b6040516104e8919061312b565b60405180910390f35b61050b60048036038101906105069190612a4e565b6116ac565b604051610518919061312b565b60405180910390f35b60008073ffffffffffffffffffffffffffffffffffffffff168373ffffffffffffffffffffffffffffffffffffffff161415610592576040517f08c379a00000000000000000000000000000000000000000000000000000000081526004016105899061300b565b60405180910390fd5b60008083815260200190815260200160002060008473ffffffffffffffffffffffffffffffffffffffff1673ffffffffffffffffffffffffffffffffffffffff16815260200190815260200160002054905092915050565b60007fd9b67a26000000000000000000000000000000000000000000000000000000007bffffffffffffffffffffffffffffffffffffffffffffffffffffffff1916827bffffffffffffffffffffffffffffffffffffffffffffffffffffffff191614806106b557507f0e89341c000000000000000000000000000000000000000000000000000000007bffffffffffffffffffffffffffffffffffffffffffffffffffffffff1916827bffffffffffffffffffffffffffffffffffffffffffffffffffffffff1916145b806106c557506106c4826116e7565b5b9050919050565b6060600280546106db90613489565b80601f016020809104026020016040519081016040528092919081815260200182805461070790613489565b80156107545780601f1061072957610100808354040283529160200191610754565b820191906000526020600020905b81548152906001019060200180831161073757829003601f168201915b50505050509050919050565b6006805490508211156107a8576040517f08c379a000000000000000000000000000000000000000000000000000000000815260040161079f9061306b565b60405180910390fd5b60046000838152602001908152602001600020506107ed3360046000858152602001908152602001600020600001548360405180602001604052806000815250611751565b8060046000848152602001908152602001600020600101600082825461081391906132c5565b925050819055507f100692475088d2c567c1fb7eeeea72284f833a6fe53e82aaf909ee2e8e5cfde73360046000858152602001908152602001600020600001548360405161086393929190612e9e565b60405180910390a15050565b6005600083815260200190815260200160002060009054906101000a900460ff16156108d0576040517f08c379a00000000000000000000000000000000000000000000000000000000081526004016108c79061308b565b60405180910390fd5b60006040518060600160405280848152602001838152602001848152509050806004600085815260200190815260200160002060008201518160000155602082015181600101556040820151816002015590505060016005600085815260200190815260200160002060006101000a81548160ff021916908315150217905550600683908060018154018082558091505060019003906000526020600020016000909190919091505561099433848460405180602001604052806000815250611751565b505050565b601481565b6109ab8585858585611902565b5050505050565b60046020528060005260406000206000915090508060000154908060010154908060020154905083565b600581565b606060006109ed610e84565b905080831115610a32576040517f08c379a0000000000000000000000000000000000000000000000000000000008152600401610a2990612feb565b60405180910390fd5b600060068054905067ffffffffffffffff811115610a79577f4e487b7100000000000000000000000000000000000000000000000000000000600052604160045260246000fd5b604051908082528060200260200182016040528015610aa75781602001602082028036833780820191505090505b50905060008060068054905090505b6000811115610da2578080610aca9061345f565b9150505b6004600060068381548110610b0c577f4e487b7100000000000000000000000000000000000000000000000000000000600052603260045260246000fd5b90600052602060002001548152602001908152602001600020600201548610158015610b92575060006004600060068481548110610b73577f4e487b7100000000000000000000000000000000000000000000000000000000600052603260045260246000fd5b9060005260206000200154815260200190815260200160002060010154115b15610d9d576004600060068381548110610bd5577f4e487b7100000000000000000000000000000000000000000000000000000000600052603260045260246000fd5b906000526020600020015481526020019081526020016000206002015486610bfd9190613375565b955060016004600060068481548110610c3f577f4e487b7100000000000000000000000000000000000000000000000000000000600052603260045260246000fd5b906000526020600020015481526020019081526020016000206001016000828254610c6a9190613375565b925050819055506001838281518110610cac577f4e487b7100000000000000000000000000000000000000000000000000000000600052603260045260246000fd5b60200260200101818151610cc091906132c5565b9150818152505060076004600060068481548110610d07577f4e487b7100000000000000000000000000000000000000000000000000000000600052603260045260246000fd5b90600052602060002001548152602001908152602001600020600201549080600181540180825580915050600190039060005260206000200160009091909190915055828181518110610d83577f4e487b7100000000000000000000000000000000000000000000000000000000600052603260045260246000fd5b602002602001015182610d9691906132c5565b9150610ace565b610ab6565b60008211610de5576040517f08c379a0000000000000000000000000000000000000000000000000000000008152600401610ddc90612f8b565b60405180910390fd5b610e73600360009054906101000a900473ffffffffffffffffffffffffffffffffffffffff16336006805480602002602001604051908101604052809291908181526020018280548015610e5857602002820191906000526020600020905b815481526020019060010190808311610e44575b5050505050866040518060200160405280600081525061099e565b82945050505050919050565b603281565b60008060005b600680549050811015610f77576004600060068381548110610ed5577f4e487b7100000000000000000000000000000000000000000000000000000000600052603260045260246000fd5b90600052602060002001548152602001908152602001600020600201546004600060068481548110610f30577f4e487b7100000000000000000000000000000000000000000000000000000000600052603260045260246000fd5b9060005260206000200154815260200190815260200160002060010154610f57919061331b565b82610f6291906132c5565b91508080610f6f906134ec565b915050610e8a565b508091505090565b60608151835114610fc5576040517f08c379a0000000000000000000000000000000000000000000000000000000008152600401610fbc906130cb565b60405180910390fd5b6000835167ffffffffffffffff811115611008577f4e487b7100000000000000000000000000000000000000000000000000000000600052604160045260246000fd5b6040519080825280602002602001820160405280156110365781602001602082028036833780820191505090505b50905060005b8451811015611125576110cf858281518110611081577f4e487b7100000000000000000000000000000000000000000000000000000000600052603260045260246000fd5b60200260200101518583815181106110c2577f4e487b7100000000000000000000000000000000000000000000000000000000600052603260045260246000fd5b6020026020010151610521565b828281518110611108577f4e487b7100000000000000000000000000000000000000000000000000000000600052603260045260246000fd5b6020026020010181815250508061111e906134ec565b905061103c565b508091505092915050565b6007818154811061114057600080fd5b906000526020600020016000915090505481565b600360009054906101000a900473ffffffffffffffffffffffffffffffffffffffff1681565b60005b82518110156113dc57600460008483815181106111c3577f4e487b7100000000000000000000000000000000000000000000000000000000600052603260045260246000fd5b602002602001015181526020019081526020016000205061128b336004600086858151811061121b577f4e487b7100000000000000000000000000000000000000000000000000000000600052603260045260246000fd5b602002602001015181526020019081526020016000206000015484848151811061126e577f4e487b7100000000000000000000000000000000000000000000000000000000600052603260045260246000fd5b602002602001015160405180602001604052806000815250611751565b8181815181106112c4577f4e487b7100000000000000000000000000000000000000000000000000000000600052603260045260246000fd5b602002602001015160046000858481518110611309577f4e487b7100000000000000000000000000000000000000000000000000000000600052603260045260246000fd5b60200260200101518152602001908152602001600020600101600082825461133191906132c5565b925050819055507f100692475088d2c567c1fb7eeeea72284f833a6fe53e82aaf909ee2e8e5cfde73360046000848152602001908152602001600020600001548484815181106113aa577f4e487b7100000000000000000000000000000000000000000000000000000000600052603260045260246000fd5b60200260200101516040516113c193929190612e9e565b60405180910390a180806113d4906134ec565b91505061117d565b505050565b6113f36113ec611c70565b8383611c78565b5050565b60056020528060005260406000206000915054906101000a900460ff1681565b600181565b6060600060068054905067ffffffffffffffff811115611465577f4e487b7100000000000000000000000000000000000000000000000000000000600052604160045260246000fd5b6040519080825280602002602001820160405280156114935781602001602082028036833780820191505090505b50905060005b8151811015611546576114f033600683815481106114e0577f4e487b7100000000000000000000000000000000000000000000000000000000600052603260045260246000fd5b9060005260206000200154610521565b828281518110611529577f4e487b7100000000000000000000000000000000000000000000000000000000600052603260045260246000fd5b6020026020010181815250508061153f906134ec565b9050611499565b508091505090565b6000600160008473ffffffffffffffffffffffffffffffffffffffff1673ffffffffffffffffffffffffffffffffffffffff16815260200190815260200160002060008373ffffffffffffffffffffffffffffffffffffffff1673ffffffffffffffffffffffffffffffffffffffff16815260200190815260200160002060009054906101000a900460ff16905092915050565b6115ea611c70565b73ffffffffffffffffffffffffffffffffffffffff168573ffffffffffffffffffffffffffffffffffffffff161480611630575061162f8561162a611c70565b61154e565b5b61166f576040517f08c379a000000000000000000000000000000000000000000000000000000000815260040161166690612fab565b60405180910390fd5b61167c8585858585611de5565b5050505050565b606481565b6006818154811061169857600080fd5b906000526020600020016000915090505481565b6000806116b93384610521565b905080915050919050565b6000808273ffffffffffffffffffffffffffffffffffffffff163b119050919050565b60007f01ffc9a7000000000000000000000000000000000000000000000000000000007bffffffffffffffffffffffffffffffffffffffffffffffffffffffff1916827bffffffffffffffffffffffffffffffffffffffffffffffffffffffff1916149050919050565b600073ffffffffffffffffffffffffffffffffffffffff168473ffffffffffffffffffffffffffffffffffffffff1614156117c1576040517f08c379a00000000000000000000000000000000000000000000000000000000081526004016117b89061310b565b60405180910390fd5b60006117cb611c70565b905060006117d885612081565b905060006117e585612081565b90506117f683600089858589612147565b8460008088815260200190815260200160002060008973ffffffffffffffffffffffffffffffffffffffff1673ffffffffffffffffffffffffffffffffffffffff168152602001908152602001600020600082825461185591906132c5565b925050819055508673ffffffffffffffffffffffffffffffffffffffff16600073ffffffffffffffffffffffffffffffffffffffff168473ffffffffffffffffffffffffffffffffffffffff167fc3d58168c5ae7397731d063d5bbf3d657854427343f4c083240f7aacaa2d0f6289896040516118d3929190613146565b60405180910390a46118ea8360008985858961214f565b6118f983600089898989612157565b50505050505050565b8151835114611946576040517f08c379a000000000000000000000000000000000000000000000000000000000815260040161193d906130eb565b60405180910390fd5b600073ffffffffffffffffffffffffffffffffffffffff168473ffffffffffffffffffffffffffffffffffffffff1614156119b6576040517f08c379a00000000000000000000000000000000000000000000000000000000081526004016119ad9061302b565b60405180910390fd5b60006119c0611c70565b90506119d0818787878787612147565b60005b8451811015611bcd576000858281518110611a17577f4e487b7100000000000000000000000000000000000000000000000000000000600052603260045260246000fd5b602002602001015190506000858381518110611a5c577f4e487b7100000000000000000000000000000000000000000000000000000000600052603260045260246000fd5b60200260200101519050600080600084815260200190815260200160002060008b73ffffffffffffffffffffffffffffffffffffffff1673ffffffffffffffffffffffffffffffffffffffff16815260200190815260200160002054905081811015611afd576040517f08c379a0000000000000000000000000000000000000000000000000000000008152600401611af49061304b565b60405180910390fd5b81810360008085815260200190815260200160002060008c73ffffffffffffffffffffffffffffffffffffffff1673ffffffffffffffffffffffffffffffffffffffff168152602001908152602001600020819055508160008085815260200190815260200160002060008b73ffffffffffffffffffffffffffffffffffffffff1673ffffffffffffffffffffffffffffffffffffffff1681526020019081526020016000206000828254611bb291906132c5565b9250508190555050505080611bc6906134ec565b90506119d3565b508473ffffffffffffffffffffffffffffffffffffffff168673ffffffffffffffffffffffffffffffffffffffff168273ffffffffffffffffffffffffffffffffffffffff167f4a39dc06d4c0dbc64b70af90fd698a233a518aa5d07e595d983b8c0526c8f7fb8787604051611c44929190612ef7565b60405180910390a4611c5a81878787878761214f565b611c6881878787878761233e565b505050505050565b600033905090565b8173ffffffffffffffffffffffffffffffffffffffff168373ffffffffffffffffffffffffffffffffffffffff161415611ce7576040517f08c379a0000000000000000000000000000000000000000000000000000000008152600401611cde906130ab565b60405180910390fd5b80600160008573ffffffffffffffffffffffffffffffffffffffff1673ffffffffffffffffffffffffffffffffffffffff16815260200190815260200160002060008473ffffffffffffffffffffffffffffffffffffffff1673ffffffffffffffffffffffffffffffffffffffff16815260200190815260200160002060006101000a81548160ff0219169083151502179055508173ffffffffffffffffffffffffffffffffffffffff168373ffffffffffffffffffffffffffffffffffffffff167f17307eab39ab6107e8899845ad3d59bd9653f200f220920489ca2b5937696c3183604051611dd89190612f2e565b60405180910390a3505050565b600073ffffffffffffffffffffffffffffffffffffffff168473ffffffffffffffffffffffffffffffffffffffff161415611e55576040517f08c379a0000000000000000000000000000000000000000000000000000000008152600401611e4c9061302b565b60405180910390fd5b6000611e5f611c70565b90506000611e6c85612081565b90506000611e7985612081565b9050611e89838989858589612147565b600080600088815260200190815260200160002060008a73ffffffffffffffffffffffffffffffffffffffff1673ffffffffffffffffffffffffffffffffffffffff16815260200190815260200160002054905085811015611f20576040517f08c379a0000000000000000000000000000000000000000000000000000000008152600401611f179061304b565b60405180910390fd5b85810360008089815260200190815260200160002060008b73ffffffffffffffffffffffffffffffffffffffff1673ffffffffffffffffffffffffffffffffffffffff168152602001908152602001600020819055508560008089815260200190815260200160002060008a73ffffffffffffffffffffffffffffffffffffffff1673ffffffffffffffffffffffffffffffffffffffff1681526020019081526020016000206000828254611fd591906132c5565b925050819055508773ffffffffffffffffffffffffffffffffffffffff168973ffffffffffffffffffffffffffffffffffffffff168573ffffffffffffffffffffffffffffffffffffffff167fc3d58168c5ae7397731d063d5bbf3d657854427343f4c083240f7aacaa2d0f628a8a604051612052929190613146565b60405180910390a4612068848a8a86868a61214f565b612076848a8a8a8a8a612157565b505050505050505050565b60606000600167ffffffffffffffff8111156120c6577f4e487b7100000000000000000000000000000000000000000000000000000000600052604160045260246000fd5b6040519080825280602002602001820160405280156120f45781602001602082028036833780820191505090505b5090508281600081518110612132577f4e487b7100000000000000000000000000000000000000000000000000000000600052603260045260246000fd5b60200260200101818152505080915050919050565b505050505050565b505050505050565b6121768473ffffffffffffffffffffffffffffffffffffffff166116c4565b15612336578373ffffffffffffffffffffffffffffffffffffffff1663f23a6e6187878686866040518663ffffffff1660e01b81526004016121bc959493929190612e44565b602060405180830381600087803b1580156121d657600080fd5b505af192505050801561220757506040513d601f19601f820116820180604052508101906122049190612a25565b60015b6122ad576122136135c2565b806308c379a0141561227057506122286139bc565b806122335750612272565b806040517f08c379a00000000000000000000000000000000000000000000000000000000081526004016122679190612f49565b60405180910390fd5b505b6040517f08c379a00000000000000000000000000000000000000000000000000000000081526004016122a490612f6b565b60405180910390fd5b63f23a6e6160e01b7bffffffffffffffffffffffffffffffffffffffffffffffffffffffff1916817bffffffffffffffffffffffffffffffffffffffffffffffffffffffff191614612334576040517f08c379a000000000000000000000000000000000000000000000000000000000815260040161232b90612fcb565b60405180910390fd5b505b505050505050565b61235d8473ffffffffffffffffffffffffffffffffffffffff166116c4565b1561251d578373ffffffffffffffffffffffffffffffffffffffff1663bc197c8187878686866040518663ffffffff1660e01b81526004016123a3959493929190612ddc565b602060405180830381600087803b1580156123bd57600080fd5b505af19250505080156123ee57506040513d601f19601f820116820180604052508101906123eb9190612a25565b60015b612494576123fa6135c2565b806308c379a01415612457575061240f6139bc565b8061241a5750612459565b806040517f08c379a000000000000000000000000000000000000000000000000000000000815260040161244e9190612f49565b60405180910390fd5b505b6040517f08c379a000000000000000000000000000000000000000000000000000000000815260040161248b90612f6b565b60405180910390fd5b63bc197c8160e01b7bffffffffffffffffffffffffffffffffffffffffffffffffffffffff1916817bffffffffffffffffffffffffffffffffffffffffffffffffffffffff19161461251b576040517f08c379a000000000000000000000000000000000000000000000000000000000815260040161251290612fcb565b60405180910390fd5b505b505050505050565b6000612538612533846131cb565b6131a6565b9050808382526020820190508285602086028201111561255757600080fd5b60005b85811015612587578161256d888261263b565b84526020840193506020830192505060018101905061255a565b5050509392505050565b60006125a461259f846131f7565b6131a6565b905080838252602082019050828560208602820111156125c357600080fd5b60005b858110156125f357816125d9888261270d565b8452602084019350602083019250506001810190506125c6565b5050509392505050565b600061261061260b84613223565b6131a6565b90508281526020810184848401111561262857600080fd5b61263384828561341d565b509392505050565b60008135905061264a81613a52565b92915050565b600082601f83011261266157600080fd5b8135612671848260208601612525565b91505092915050565b600082601f83011261268b57600080fd5b813561269b848260208601612591565b91505092915050565b6000813590506126b381613a69565b92915050565b6000813590506126c881613a80565b92915050565b6000815190506126dd81613a80565b92915050565b600082601f8301126126f457600080fd5b81356127048482602086016125fd565b91505092915050565b60008135905061271c81613a97565b92915050565b6000806040838503121561273557600080fd5b60006127438582860161263b565b92505060206127548582860161263b565b9150509250929050565b600080600080600060a0868803121561277657600080fd5b60006127848882890161263b565b95505060206127958882890161263b565b945050604086013567ffffffffffffffff8111156127b257600080fd5b6127be8882890161267a565b935050606086013567ffffffffffffffff8111156127db57600080fd5b6127e78882890161267a565b925050608086013567ffffffffffffffff81111561280457600080fd5b612810888289016126e3565b9150509295509295909350565b600080600080600060a0868803121561283557600080fd5b60006128438882890161263b565b95505060206128548882890161263b565b94505060406128658882890161270d565b93505060606128768882890161270d565b925050608086013567ffffffffffffffff81111561289357600080fd5b61289f888289016126e3565b9150509295509295909350565b600080604083850312156128bf57600080fd5b60006128cd8582860161263b565b92505060206128de858286016126a4565b9150509250929050565b600080604083850312156128fb57600080fd5b60006129098582860161263b565b925050602061291a8582860161270d565b9150509250929050565b6000806040838503121561293757600080fd5b600083013567ffffffffffffffff81111561295157600080fd5b61295d85828601612650565b925050602083013567ffffffffffffffff81111561297a57600080fd5b6129868582860161267a565b9150509250929050565b600080604083850312156129a357600080fd5b600083013567ffffffffffffffff8111156129bd57600080fd5b6129c98582860161267a565b925050602083013567ffffffffffffffff8111156129e657600080fd5b6129f28582860161267a565b9150509250929050565b600060208284031215612a0e57600080fd5b6000612a1c848285016126b9565b91505092915050565b600060208284031215612a3757600080fd5b6000612a45848285016126ce565b91505092915050565b600060208284031215612a6057600080fd5b6000612a6e8482850161270d565b91505092915050565b60008060408385031215612a8a57600080fd5b6000612a988582860161270d565b9250506020612aa98582860161270d565b9150509250929050565b6000612abf8383612da3565b60208301905092915050565b612ad4816133a9565b82525050565b6000612ae582613264565b612aef8185613292565b9350612afa83613254565b8060005b83811015612b2b578151612b128882612ab3565b9750612b1d83613285565b925050600181019050612afe565b5085935050505092915050565b612b41816133bb565b82525050565b6000612b528261326f565b612b5c81856132a3565b9350612b6c81856020860161342c565b612b75816135e4565b840191505092915050565b6000612b8b8261327a565b612b9581856132b4565b9350612ba581856020860161342c565b612bae816135e4565b840191505092915050565b6000612bc66034836132b4565b9150612bd182613602565b604082019050919050565b6000612be9600f836132b4565b9150612bf482613651565b602082019050919050565b6000612c0c602f836132b4565b9150612c178261367a565b604082019050919050565b6000612c2f6028836132b4565b9150612c3a826136c9565b604082019050919050565b6000612c526010836132b4565b9150612c5d82613718565b602082019050919050565b6000612c75602a836132b4565b9150612c8082613741565b604082019050919050565b6000612c986025836132b4565b9150612ca382613790565b604082019050919050565b6000612cbb602a836132b4565b9150612cc6826137df565b604082019050919050565b6000612cde600f836132b4565b9150612ce98261382e565b602082019050919050565b6000612d016015836132b4565b9150612d0c82613857565b602082019050919050565b6000612d246029836132b4565b9150612d2f82613880565b604082019050919050565b6000612d476029836132b4565b9150612d52826138cf565b604082019050919050565b6000612d6a6028836132b4565b9150612d758261391e565b604082019050919050565b6000612d8d6021836132b4565b9150612d988261396d565b604082019050919050565b612dac81613413565b82525050565b612dbb81613413565b82525050565b6000602082019050612dd66000830184612acb565b92915050565b600060a082019050612df16000830188612acb565b612dfe6020830187612acb565b8181036040830152612e108186612ada565b90508181036060830152612e248185612ada565b90508181036080830152612e388184612b47565b90509695505050505050565b600060a082019050612e596000830188612acb565b612e666020830187612acb565b612e736040830186612db2565b612e806060830185612db2565b8181036080830152612e928184612b47565b90509695505050505050565b6000606082019050612eb36000830186612acb565b612ec06020830185612db2565b612ecd6040830184612db2565b949350505050565b60006020820190508181036000830152612eef8184612ada565b905092915050565b60006040820190508181036000830152612f118185612ada565b90508181036020830152612f258184612ada565b90509392505050565b6000602082019050612f436000830184612b38565b92915050565b60006020820190508181036000830152612f638184612b80565b905092915050565b60006020820190508181036000830152612f8481612bb9565b9050919050565b60006020820190508181036000830152612fa481612bdc565b9050919050565b60006020820190508181036000830152612fc481612bff565b9050919050565b60006020820190508181036000830152612fe481612c22565b9050919050565b6000602082019050818103600083015261300481612c45565b9050919050565b6000602082019050818103600083015261302481612c68565b9050919050565b6000602082019050818103600083015261304481612c8b565b9050919050565b6000602082019050818103600083015261306481612cae565b9050919050565b6000602082019050818103600083015261308481612cd1565b9050919050565b600060208201905081810360008301526130a481612cf4565b9050919050565b600060208201905081810360008301526130c481612d17565b9050919050565b600060208201905081810360008301526130e481612d3a565b9050919050565b6000602082019050818103600083015261310481612d5d565b9050919050565b6000602082019050818103600083015261312481612d80565b9050919050565b60006020820190506131406000830184612db2565b92915050565b600060408201905061315b6000830185612db2565b6131686020830184612db2565b9392505050565b60006060820190506131846000830186612db2565b6131916020830185612db2565b61319e6040830184612db2565b949350505050565b60006131b06131c1565b90506131bc82826134bb565b919050565b6000604051905090565b600067ffffffffffffffff8211156131e6576131e5613593565b5b602082029050602081019050919050565b600067ffffffffffffffff82111561321257613211613593565b5b602082029050602081019050919050565b600067ffffffffffffffff82111561323e5761323d613593565b5b613247826135e4565b9050602081019050919050565b6000819050602082019050919050565b600081519050919050565b600081519050919050565b600081519050919050565b6000602082019050919050565b600082825260208201905092915050565b600082825260208201905092915050565b600082825260208201905092915050565b60006132d082613413565b91506132db83613413565b9250827fffffffffffffffffffffffffffffffffffffffffffffffffffffffffffffffff038211156133105761330f613535565b5b828201905092915050565b600061332682613413565b915061333183613413565b9250817fffffffffffffffffffffffffffffffffffffffffffffffffffffffffffffffff048311821515161561336a57613369613535565b5b828202905092915050565b600061338082613413565b915061338b83613413565b92508282101561339e5761339d613535565b5b828203905092915050565b60006133b4826133f3565b9050919050565b60008115159050919050565b60007fffffffff0000000000000000000000000000000000000000000000000000000082169050919050565b600073ffffffffffffffffffffffffffffffffffffffff82169050919050565b6000819050919050565b82818337600083830152505050565b60005b8381101561344a57808201518184015260208101905061342f565b83811115613459576000848401525b50505050565b600061346a82613413565b9150600082141561347e5761347d613535565b5b600182039050919050565b600060028204905060018216806134a157607f821691505b602082108114156134b5576134b4613564565b5b50919050565b6134c4826135e4565b810181811067ffffffffffffffff821117156134e3576134e2613593565b5b80604052505050565b60006134f782613413565b91507fffffffffffffffffffffffffffffffffffffffffffffffffffffffffffffffff82141561352a57613529613535565b5b600182019050919050565b7f4e487b7100000000000000000000000000000000000000000000000000000000600052601160045260246000fd5b7f4e487b7100000000000000000000000000000000000000000000000000000000600052602260045260246000fd5b7f4e487b7100000000000000000000000000000000000000000000000000000000600052604160045260246000fd5b600060033d11156135e15760046000803e6135de6000516135f5565b90505b90565b6000601f19601f8301169050919050565b60008160e01c9050919050565b7f455243313135353a207472616e7366657220746f206e6f6e204552433131353560008201527f526563656976657220696d706c656d656e746572000000000000000000000000602082015250565b7f6e6f206861792062696c6c657465730000000000000000000000000000000000600082015250565b7f455243313135353a2063616c6c6572206973206e6f7420746f6b656e206f776e60008201527f6572206e6f7220617070726f7665640000000000000000000000000000000000602082015250565b7f455243313135353a204552433131353552656365697665722072656a6563746560008201527f6420746f6b656e73000000000000000000000000000000000000000000000000602082015250565b7f6e6f2074656e656d6f732074616e746f00000000000000000000000000000000600082015250565b7f455243313135353a2061646472657373207a65726f206973206e6f742061207660008201527f616c6964206f776e657200000000000000000000000000000000000000000000602082015250565b7f455243313135353a207472616e7366657220746f20746865207a65726f20616460008201527f6472657373000000000000000000000000000000000000000000000000000000602082015250565b7f455243313135353a20696e73756666696369656e742062616c616e636520666f60008201527f72207472616e7366657200000000000000000000000000000000000000000000602082015250565b7f6e6f206861792065736520696421210000000000000000000000000000000000600082015250565b7f796120657374616120657374652062696c6c6574650000000000000000000000600082015250565b7f455243313135353a2073657474696e6720617070726f76616c2073746174757360008201527f20666f722073656c660000000000000000000000000000000000000000000000602082015250565b7f455243313135353a206163636f756e747320616e6420696473206c656e67746860008201527f206d69736d617463680000000000000000000000000000000000000000000000602082015250565b7f455243313135353a2069647320616e6420616d6f756e7473206c656e6774682060008201527f6d69736d61746368000000000000000000000000000000000000000000000000602082015250565b7f455243313135353a206d696e7420746f20746865207a65726f2061646472657360008201527f7300000000000000000000000000000000000000000000000000000000000000602082015250565b600060443d10156139cc57613a4f565b6139d46131c1565b60043d036004823e80513d602482011167ffffffffffffffff821117156139fc575050613a4f565b808201805167ffffffffffffffff811115613a1a5750505050613a4f565b80602083010160043d038501811115613a37575050505050613a4f565b613a46826020018501866134bb565b82955050505050505b90565b613a5b816133a9565b8114613a6657600080fd5b50565b613a72816133bb565b8114613a7d57600080fd5b50565b613a89816133c7565b8114613a9457600080fd5b50565b613aa081613413565b8114613aab57600080fd5b5056fea26469706673582212204e4506a7a4d04c3e9ff7c09d94a9fe9ebee822d43c8c57546be34d38ea70825b64736f6c6343000801003368747470733a2f2f67616d652e6578616d706c652f6170692f6974656d2f7b69647d2e6a736f6e",
  "immutableReferences": {},
  "source": "// SPDX-License-Identifier: MIT\r\npragma solidity ^0.8.0;\r\n\r\nimport \"@openzeppelin/contracts/token/ERC1155/ERC1155.sol\";\r\n\r\n  contract SolidityChallenge is ERC1155 {\r\n    uint256 public constant UNOPESOS = 1;\r\n    uint256 public constant CINCOPESOS = 5;\r\n    uint256 public constant VEINTEPESOS = 20;\r\n    uint256 public constant CINCUENTAPESOS = 50;\r\n    uint256 public constant CIENPESOS = 100;\r\n\r\n    struct Billetes{\r\n        uint id;\r\n        uint cantidad;\r\n        uint valor;\r\n    }\r\n  //MODIFIER OWNER\r\n\r\n  \r\n    address public owner = msg.sender ;\r\n\r\n    mapping(uint=>Billetes) public Billete;\r\n    mapping(uint=> bool) public verificaBillete;\r\n    event ChangeStock(address user, uint id, uint cantidad);\r\n\r\n    uint[] public ids;\r\n    uint[] public billetesUsados;\r\n    \r\n\r\n    constructor()  ERC1155(\"https://game.example/api/item/{id}.json\") {  \r\n        crearBilletes(UNOPESOS, 50);\r\n        crearBilletes(CINCOPESOS, 5);\r\n        crearBilletes(VEINTEPESOS, 2);\r\n        crearBilletes(CINCUENTAPESOS, 2);\r\n        crearBilletes(CIENPESOS, 20);\r\n\r\n        owner = msg.sender;\r\n    \r\n    }\r\n//CREAR NUEVO BILLETE\r\n  function crearBilletes (uint _id, uint _cantidad) public  {\r\n        require(!verificaBillete[_id], \"ya estaa este billete\");\r\n        Billetes memory newUnPeso = Billetes(\r\n              _id,\r\n              _cantidad,\r\n              _id\r\n        );\r\n\r\n        Billete[_id] = newUnPeso;\r\n        verificaBillete[_id] = true;\r\n        ids.push(_id);\r\n      _mint(msg.sender, _id, _cantidad , \"\");\r\n  }\r\n\r\n  //PAGO DE BILLETES\r\n    function convertDenom(uint _cantidad) public  returns(uint[] memory va)  {\r\n      uint totalBilletes = _totalPesos();\r\n      require (_cantidad <= totalBilletes, \"no tenemos tanto\");\r\n\r\n       uint[] memory cantidadDenom= new uint256[](ids.length);\r\n        uint totalPagado ;\r\n        uint i = ids.length ;\r\n        while(i > 0){\r\n          i--;\r\n          while(_cantidad >= Billete[ids[i]].valor && Billete[ids[i]].cantidad > 0){\r\n          _cantidad -= Billete[ids[i]].valor;\r\n          Billete[ids[i]].cantidad -= 1;\r\n          cantidadDenom[i] += 1;\r\n          billetesUsados.push(Billete[ids[i]].valor);\r\n          totalPagado += cantidadDenom[i];\r\n          }\r\n        }                              \r\n        require(totalPagado > 0, \"no hay billetes\");\r\n        safeBatchTransferFrom(owner,msg.sender,ids, cantidadDenom ,\"\" );\r\n        return cantidadDenom;\r\n    }\r\n\r\n  //RETRUN BALANCE POR BILLETE\r\n    function returnTotalBilletes(uint _id) public view returns(uint algo){\r\n      uint balance = balanceOf(msg.sender, _id);\r\n      return  balance;\r\n    }\r\n\r\n  //RETURN TODOS LOS BILLETES\r\n    function returnTotalBilletes() public view returns(uint[] memory total){\r\n        uint256[] memory batchBalances1 = new uint256[](ids.length);\r\n        for (uint256 i = 0; i < batchBalances1.length; ++i) {\r\n                batchBalances1[i] = balanceOf(msg.sender, ids[i]);\r\n            }\r\n          return batchBalances1;\r\n    }\r\n\r\n  //AGREGAR STOCK POR BILLETE\r\n    function changeStock(uint _id, uint _cantidad) public {\r\n      require(_id <= ids.length, \"no hay ese id!!\" );\r\n        Billete[_id];\r\n         _mint(msg.sender, Billete[_id].id,_cantidad , \"\");\r\n          Billete[_id].cantidad +=_cantidad;\r\n         emit ChangeStock(msg.sender,Billete[_id].id,_cantidad );\r\n    }\r\n\r\n  //AGREGAR TODOS LOS BILLETES O LOS QUE QUIERAS \r\n    function changeStockTodos(uint[] memory _ids, uint[] memory _cantidad) public {\r\n      for(uint i = 0; i< _ids.length;i++){\r\n       \r\n        Billete[_ids[i]];\r\n         _mint(msg.sender, Billete[_ids[i]].id, _cantidad[i] , \"\");\r\n          Billete[_ids[i]].cantidad +=_cantidad[i];\r\n         emit ChangeStock(msg.sender,Billete[i].id,_cantidad[i] );\r\n      }\r\n    }\r\n//TOTAL DE LA SUMA DE TODOS LOS BILLETICOS\r\n    function _totalPesos() public view returns(uint){\r\n      uint totalBilletes;\r\n       for(uint i = 0; i<ids.length; i++){\r\n        totalBilletes += Billete[ids[i]].cantidad * Billete[ids[i]].valor;\r\n      }\r\n      return totalBilletes;\r\n    }\r\n\r\n\r\n}",
  "sourcePath": "C:\\Users\\Hp Omen\\Desktop\\Challenge Solidity\\contracts\\ChallengeSolidity.sol",
  "compiler": {
    "name": "solc",
    "version": "0.8.1+commit.df193b15.Emscripten.clang"
  },
  "schemaVersion": "3.4.3",
  "updatedAt": "2022-07-04T02:38:48.926Z",
  "devdoc": {
    "kind": "dev",
    "methods": {
      "balanceOf(address,uint256)": {
        "details": "See {IERC1155-balanceOf}. Requirements: - `account` cannot be the zero address."
      },
      "balanceOfBatch(address[],uint256[])": {
        "details": "See {IERC1155-balanceOfBatch}. Requirements: - `accounts` and `ids` must have the same length."
      },
      "isApprovedForAll(address,address)": {
        "details": "See {IERC1155-isApprovedForAll}."
      },
      "safeBatchTransferFrom(address,address,uint256[],uint256[],bytes)": {
        "details": "See {IERC1155-safeBatchTransferFrom}."
      },
      "safeTransferFrom(address,address,uint256,uint256,bytes)": {
        "details": "See {IERC1155-safeTransferFrom}."
      },
      "setApprovalForAll(address,bool)": {
        "details": "See {IERC1155-setApprovalForAll}."
      },
      "supportsInterface(bytes4)": {
        "details": "See {IERC165-supportsInterface}."
      },
      "uri(uint256)": {
        "details": "See {IERC1155MetadataURI-uri}. This implementation returns the same URI for *all* token types. It relies on the token type ID substitution mechanism https://eips.ethereum.org/EIPS/eip-1155#metadata[defined in the EIP]. Clients calling this function must replace the `\\{id\\}` substring with the actual token type ID."
      }
    },
    "version": 1
  },
  "userdoc": {
    "kind": "user",
    "methods": {},
    "version": 1
  }
}